:020000040800F2
:10000000402C0020D5000008DD0000089D010008FC
:1000100000000000000000000000000000000000E0
:10002000000000000000000000000000E1000008E7
:1000300000000000000000001B010008611800081B
:10004000E7000008E7000008E7000008E7000008F4
:10005000E7000008E7000008E7000008E7000008E4
:1000600000000000E7000008E7000008E7000008C3
:10007000E7000008E700000800000000E7000008B3
:100080000000000000000000000000000000000070
:10009000E70000080000000059190008E700000808
:1000A00000000000E7000008000000000000000061
:1000B000E7000008050E0008000000000000000036
:1000C0000348854600F066F9004800470F04000821
:1000D000402C00200448804704480047FEE7FEE724
:1000E000FEE7FEE7FEE7FEE771180008C100000822
:1000F000EFF3108072B6704780F3108870472A4A79
:100100001368012B03D001231360284A1060284A8A
:1001100011602848284901607047EFF3108272B6D9
:100120002148016800291DD0002101601F48016895
:1001300000290AD0EFF30981203900680160F0C17D
:1001400044464D4656465F46F0C11949096809685C
:10015000F0C9F0B4F0C9A046A946B246BB46F0BC0F
:1001600081F3098882F31088042040420047104937
:1001700008600E49002008600B49012008600F4804
:100180000F490268114301600A480B4901600D489C
:100190000068006880F3088862B67047EFF3098052
:1001A00000B503F079F900BD2C01002024010020E6
:1001B0002801002004ED00E00000001020ED00E028
:1001C0000000FF0008ED00E030B50B4601460020BE
:1001D0002022012409E00D46D5409D4205D31D464D
:1001E0009540491B2546954040191546521E002D45
:1001F000F1DC30BD70B500242546002801DA012469
:100200004042002901DA01254942FFF7DDFFAC42F7
:1002100000D04042002C00D0494270BDF0B51FB460
:100220000646002082B005464024019100901BE064
:10023000019922460F46304600F09AF8049A059B31
:10024000801A994110D310461946224600F080F8D2
:10025000361A8F410197224601200021009F00F0AD
:1002600077F838184D4100902046641E0028DFDCE6
:10027000019B00982946324607B0F0BD03460B4368
:100280009B0703D009E008C9121F08C0042AFAD24C
:1002900003E00B780370401C491C521EF9D27047D2
:1002A000D2B201E00270401C491EFBD2704700220E
:1002B000F6E710B513460A4604461946FFF7F0FF65
:1002C000204610BD421E5378521C002BFBD10B78E8
:1002D0001370491C521C002BF9D1704710B504460D
:1002E00005E00B780370401C002B00D0491C521E07
:1002F000F7D2204610BD421C0178401C0029FBD1DA
:10030000801A704710B5002200E0521C835C8C5CA0
:10031000A34201D1002BF8D1D8B2E1B2401A10BDEE
:1003200003460A780270401C491C002AF9D118467D
:10033000704730B505460020034600E05B1C934241
:1003400005D2EC5CC85C201A01D1002CF6D130BD7E
:1003500010B5202A04DB0146203A9140002010BD50
:10036000914020239C1A0346E3401943904010BD5E
:1003700010B5202A04DB0846203AD040002110BDE9
:100380000B46D340D0402024A21A9140084319467E
:1003900010BD0000064C0125064E05E0E36807CCC1
:1003A0002B430C3C98471034B442F7D3FFF78CFE34
:1003B000204900084049000870B58C180578401C99
:1003C0006B075B0F01D10378401C2A1106D102781C
:1003D000401C03E006780E70401C491C5B1EF9D1DE
:1003E0002B0705D40023521E0DD40B70491CFAE7CD
:1003F0000378401CCB1A921C03E01D780D70491C39
:100400005B1C521EF9D5A142D8D3002070BD10B597
:1004100004F02AF8002010BD1921C9014843401EEC
:10042000FDD27047084B98420DD8084BC01872B6E1
:1004300003E003780B70401C491C1346521E92B215
:10044000002BF6D162B67047FF03000000000808D9
:10045000F8B5104D0F46A9111446884219D80E4917
:10046000461872B600F04CF80C480AE03978317042
:10047000761C7F1C00E06D1E8169C90701D0002D2C
:10048000F9D12146641EA4B20029EFD100F02EF864
:1004900062B6F8BDFFFF000000000808002002401F
:1004A00030B587B014216846FFF701FF0E48C16AD6
:1004B00001242143C162C06A0525204005906002E5
:1004C0000090002001902D0702906946284600F018
:1004D00031F860200090022002900194694628467D
:1004E00000F028F807B030BD001002400348416812
:1004F00001221143416000207047000000200240AB
:1005000009494868C0070DD0EFF3108072B6074A5A
:10051000CA60074ACA6080F310884868C00701D0E3
:10052000012070470020704700200240EFCDAB89CA
:1005300005040302F8B5002301249DE027469F40EF
:100540003A4070D04D68022D01D0122D14D1DD0833
:10055000AD002D1800952D6A5E07AC46F50E0F26EE
:10056000AE46AE406546B543AC460E697546AE40F4
:1005700065462E43009D2E624D68012D05D0022D4B
:1005800003D0112D01D0122D16D185680326AC465B
:100590005D00AE46AE406546B543AC46CE68754696
:1005A000AE4065462E43866046680D79BE43ED0633
:1005B000ED0F9D403543456006685F000325BD4053
:1005C000AE46AE430D79B446AE07B60FBE406546A3
:1005D0002E430660C6687546AE438D68BD40354300
:1005E000C5604D68ED0046D5264D6E6B26436E63A3
:1005F0009E08254DB6007519AC46AD689E07360FAE
:100600000F27B740BD4305273F07B84201D1002758
:1006100010E01E4FB84201D101270BE01C4FB84239
:1006200002D1022706E026E01A4FB84201D1052781
:1006300000E00627B7402F436546AF60164D2E6891
:100640004F689643FF0300D516432E606E684F68CF
:100650009643BF0300D516436E60AE684F6896435D
:10066000FF0200D51643AE60EE684F689643BF02A6
:1006700000D51643EE605B1C0A681546DD4000D0CD
:100680005CE7F8BD0010024000000140000400508B
:1006900000080050001C00500004014000690840A0
:1006A00000D001207047002A01D08161704781622B
:1006B00070470000014800687047000048010020B2
:1006C00070B504000FD021681348086021681348F2
:1006D000086003CC41602068083C21688860FFF70F
:1006E000E9FF054608E0012070BDFFF7E3FF401B6E
:1006F000302801D9032070BD2068C0680028F4D1DB
:1007000020680269E1688A4201D0016101E0044980
:100710000160002070BD0000CCCC000055550000E9
:10072000AAAA00000068024901600020704700008A
:10073000AAAA000010B5084800240168402211430D
:100740000160204600F00AF8002801D0012401E0F1
:1007500000F01CF8204610BD0020024070B5054690
:1007600009487D210024C9000068FFF72DFD00F035
:1007700019F9002801D0012404E000222946501E66
:1007800000F01AF8204670BD4C0100200448416B6F
:10079000012211434163816B02041143816370475D
:1007A00000100240C106C90E0120884001490860BE
:1007B0007047000000E100E010B500F0CBFF10BD75
:1007C000F8B50E4605007DD053480068C007C00F3D
:1007D000B0420AD2504801684908490031430160DB
:1007E0000068C007C00FB04271D128784B4C800719
:1007F00005D5E068F0218843A9680843E0602878BF
:10080000C00752D06868022817D0032818D0216882
:10081000012818D08905002959DAE168890889007A
:100820000143E160FFF746FF69680746022912D0DD
:1008300003291CD0012926D033E021688903EAE787
:1008400021688901E7E74907E5E7FFF733FFC11BA7
:100850003348814223D8E0680007800F0228F4D192
:1008600023E0FFF727FFC11B2D48814217D8E0681E
:100870000007800F0328F4D117E0FFF71BFFC11B0F
:10088000274881420BD8E0680007800F0128F4D187
:100890000BE0FFF70FFFC11B2148814201D9032064
:1008A000F8BDE0680007800FF3D11B480168C90755
:1008B000C90FB1420DD901684908490031430160AF
:1008C000006800E003E0C007C00FB04201D0012083
:1008D000F8BD2878400706D5E0680721090288435B
:1008E000E9680843E0602878000707D5E068072139
:1008F000C90288432969C9000843E06000F016F87E
:10090000E168084A0906090F515CC84006490860B9
:100910000020FFF723FFF8BD002002400010024036
:1009200088130000E94700084C01002010B5184A60
:10093000D1680C20084004280BD0082810D00C28BF
:1009400010D050680004410F0120C003491C8840AA
:1009500010BD1068C00601D50E4810BD0E4810BD70
:100960000E4810BD88020E4B000F185C0902D368B8
:10097000890F491CDB0301D5084A05E01268D2063D
:1009800001D5044A00E0044A5043FFF71DFC10BDA6
:100990000010024000093D000024F40000127A001B
:1009A000F9470008094910B5401E884201D90120C5
:1009B00010BD074C60610321081F00F0CBFE002032
:1009C000A06107202061002010BD0000FFFFFF0094
:1009D00000E000E070B5040005D025462035687EB3
:1009E000002802D006E0012070BD002028762046B5
:1009F00000F00AF802206876211D206800F0CEFF82
:100A000001206876002070BD10B500680849884252
:100A10000CD10848416B202211434163032201217C
:100A20001620FFF7C9FE1620FFF7BCFE10BD000020
:100A300000140140001002400268D36801210B43FA
:100A4000D360006882685207520F062A02D00268FB
:100A50000A43026000207047704770B50446006882
:100A600001690025C9438907002915DBC168C9430D
:100A7000890711D4E91E0161012020762068806970
:100A80008007204602D0FFF7E7FF04E000F078F887
:100A9000204600F076F8257620680169C9434907A9
:100AA00017D4C168C943490713D40421C94301615C
:100AB00002202076206880698005800F204602D0C1
:100AC000FFF7CAFF04E000F05BF8204600F059F899
:100AD000257620680169C943090716D4C168C9434E
:100AE000090712D40821C943016104202076206837
:100AF000C0698007204602D0FFF7AEFF04E000F097
:100B00003FF8204600F03DF8257620680169C9438A
:100B1000C90617D4C168C943C90613D41021C943F3
:100B20000161082020762068C0698005800F20467A
:100B300002D0FFF791FF04E000F022F8204600F019
:100B400020F8257620680169C943C90708D1C16822
:100B5000C943C90704D1891E0161204600F012F87B
:100B600020680169C943490609D4C168C9434906D7
:100B700005D44021C9430161204600F057F870BDFB
:100B800070477047F8B5244988423BD1234C24492B
:100B9000E088401C85B2E5802089401C2081486A9D
:100BA00086B2002048621F498A6997198F61012126
:100BB000002E01D02170E070E278521CD2B2E270B7
:100BC0003B2A02D9002E00D120700120607005213F
:100BD000681CFFF7F9FA002901D10120A070142D3B
:100BE00002D2207900280ED01421681CFFF7ECFAFD
:100BF000002907D10C480B490288BA1A5300D218B1
:100C00008A600780F8BD132D01D10120207170008A
:100C1000311804488160F8BD9C220020300000207B
:100C2000000801404C02002008000020704700002E
:100C3000FFB50446806F85B017460E46202875D153
:100C4000002E0AD0002F08D0A168C001814207D130
:100C50002069002804D1F00702D0012009B0F0BDBE
:100C6000204660300290007C01285FD0029801216C
:100C700001740020E0672220A067FFF71BFD2546D6
:100C8000403504902F836F830121A0680903FF2260
:100C9000884204D12369002B0CD1254A0AE07F2326
:100CA000002809D001221207904213D12269002A9C
:100CB00005D03F22AA8303E02769002FFAD0AB8337
:100CC000AA8B0192884202D12069002804D03746BD
:100CD000002602E00022EDE70027D0B20390688BE7
:100CE00000281DD008980090002220212046049B57
:100CF00000F0ACFE002801D00320AFE72068002FF1
:100D0000406A07D00399084038707F1C688B401EEA
:100D10006883E4E7019908403080B61CF6E705E0F7
:100D20002020A06702990020087497E7022095E729
:100D3000FF010000FFB50446406F83B017460D4623
:100D400020285CD1002D0AD0002F08D0A168C00156
:100D5000814207D12069002804D1E80702D0012090
:100D600007B0F0BD204660300290007C012846D0DC
:100D70000298012101740020E06721206067FFF7DD
:100D800099FC264640360190378277820120A1687F
:100D90000003814202D12069002802D02F4600259D
:100DA00011E000270FE000228021204600F04EFED7
:100DB000002815D1002F15D02168387888627F1C53
:100DC000708A401E7082708A019B002806980090ED
:100DD000E9D100224021204600F038FE002808D04A
:100DE0000320BDE728882168C005C00D8862AD1CBE
:100DF000E6E720206067029900200874B0E702202F
:100E0000AEE7000010B5154CE069800605D5144822
:100E10002062606AC0B200F0D7FBE069400616D5D8
:100E200010482062104948780A78904205D20F4A4B
:100E3000125CA262401C487009E000200870206823
:100E40004021884320601020052109078862E0695D
:100E5000000701D50820206210BD000000480040B6
:100E600025050000260600003A0000206E23002021
:100E700010B505242407002807D000222021204691
:100E8000FFF711FC0122402106E00022402120460C
:100E9000FFF709FC012220212046FFF704FC10BDCA
:100EA000FEB52E4A002511795479090209198CB230
:100EB0002B499378D0780D7016782A4D002E2A7819
:100EC000019200D01646284A670016700326567015
:100ED00097700E700646303E202E09D20619502E0D
:100EE00006D8002C04D0019D9D4205D0002B03D0D4
:100EF000022000F0DFFAFEBD002523E00646303E6A
:100F0000330000F0BFFF10090B26292929292929C0
:100F1000292929290E290E29019B01E0114B5B7813
:100F200000930223DE00009F083EF7400E7897559D
:100F3000761C5B1E1B060E701B0EF3D1401C6D1C35
:100F4000C0B2EDB2A542D9D30978074800F0D2FA71
:100F5000FEBD044B9B78E3E70023E1E7D8220020A5
:100F6000000000204C02002050010020F8B531485C
:100F7000324F017943790902C9188CB22E4986781B
:100F8000C27800230B7003783878002B00D003461A
:100F90002B4D2B7004236B706300AB7003230B701D
:100FA0000E2A0AD81319102B07D8002C05D0E307F6
:100FB00003D1D30701D1B04203D0022000F07AFA66
:100FC000F8BD002620E0130000F05CFF0B07310A9B
:100FD00031253128312B312E31001848007901E0BC
:100FE0001648407904238446DF006046083FF840F5
:100FF0000F78E8557F1C5B1E1B060F701B0EF3D18C
:10100000921CB61CD2B2F6B2A642DCD309780C48C8
:1010100000F062FAF8BD09488068E3E707484069D4
:10102000E0E706488069DDE70448C069DAE70020A8
:10103000D8E70000D8220020000000204C02002049
:101040005001002070B5204A204C9378D0780021C0
:1010500021701F4915780978002D01D00E4600E057
:1010600000261C4D2E7005266E7002252570044644
:10107000503C052C01D2994201D0022007E01249D0
:1010800012794979FF2A05D0002A03D0032000F005
:1010900011FA70BD0029F9D150280FD051280DD177
:1010A000002A0BD101220CA10020FFF7D1F900F09A
:1010B00073FB012209A10020FFF7CAF906210248AB
:1010C00000F00AFA70BD0000D822002000000020C5
:1010D0004C0200205001002002000000010000002E
:1010E000F8B54D48002701794279090289184B4A21
:1010F0008678C4788DB21770017849480029007845
:1011000001D0034600E0002346490B7010234B70CA
:101110006B008B70032111702146303920290AD2CF
:101120006119502907D8002D05D03B4989798B4298
:1011300001D1B04203D0022000F0BCF9F8BD002676
:1011400062E0392C34D007DC20463038030000F050
:1011500099FE0308131F56003E2C50DA3A2C4ED14C
:1011600039E02D48C019C179007A090208182C49C4
:1011700001220870104640E027480122C019C179B9
:10118000007A09020818264948700220491C0AE022
:1011900021480122C019C179007A090208182049A2
:1011A00088700320891CFFF753F900F081FC26E0CA
:1011B0001948C019C179007A090208181A4980B281
:1011C00088421CD016494861694601F01FFE04227E
:1011D0006946104611E01048C019C179007A090229
:1011E0000818114980B2884209D00D4988616946C2
:1011F00001F00CFE042269461420FFF729F9641C53
:10120000761CE4B2F6B2BF1CAE429AD30621024865
:1012100000F062F9F8BD0000D82200200000002094
:101220004C02002050010020FFFF0000F8B53D48AF
:101230003D4A037891781046C0788B4203D009026A
:10124000081881B202E05121090241181679547937
:101250003002001985B23548002707701278002A3D
:1012600000D10023324A13702B2353709670D47030
:10127000042202702F4A8A18062A07D22E4A4B19D6
:10128000934203D8002D01D0002440E0022000F05A
:1012900011F9F8BD274A8A18130000F0F3FD06047F
:1012A00013151C3F4134224A0378E026D6545B1CB8
:1012B000DBB20126D6545B1CDBB20026D6545B1C85
:1012C000037020E0E12600E0E226194B02789E54EC
:1012D000521C027017E0164B0278E3269E54521CF3
:1012E0000726D2B29E54521CB446027000221E46FB
:1012F000124B9B185F780378521CF7545B1CD2B2D8
:1013000003706245F4D3491C641C89B2E4B2AC4258
:10131000C0D30178064800F0DFF8F8BDE426D4E732
:10132000E526D2E74C020020D82200200000002051
:101330005001002020AEFFFFE6710000AA45000822
:10134000F8B52A4F2A4CB878F9780002401886B2CE
:10135000387979790002401882B2002020707878BC
:10136000002801D023480078234D28704120687060
:10137000022020703B5C2178401C6B54491CC0B299
:1013800021700628F6D3012E19D1002A17D11C4E40
:1013900001221AA13046FFF75BF801226946304668
:1013A000FFF740F8684600780C2809D02078012122
:1013B0002954401CC1B221700F4800F08DF8F8BDCF
:1013C000207800212954401CC1B221700A4800F045
:1013D00083F80C4800780028FDD1BFF34F8F0B49EC
:1013E0000948C860BFF34F8F00BFFDE7D822002037
:1013F000000000204C020020500100200C000000E2
:10140000FF0300003A0000200400FA0500ED00E0B0
:1014100038B50020694608802148007801282BD182
:10142000204800F01BF9022826D0684600880028D2
:1014300022D01D4802781B4801788A4201D0002939
:101440001AD14278102A21D006DC032A15D0042AAA
:1014500016D0052A04D116E02B2A1AD0412A1BD017
:101460001348802401702243012142700F4B817088
:101470000321197000F030F838BDFFF711FD38BDB9
:10148000FFF774FD38BDFFF7DDFD38BDFFF728FE1F
:1014900038BDFFF7CBFE38BDFFF752FF38BD000067
:1014A0003D000020D82200204C0200200000002037
:1014B0005001002070B5074A80255478044B2C4316
:1014C0005470907003211970104600F005F870BD3B
:1014D000000000205001002070B5044600780D4641
:1014E000002806D03220FEF797FF2946204600F05C
:1014F00005F970BD70B505460C463220FEF78CFF2D
:101500002146284600F0FAF870BD30B50546C807F8
:1015100001D0002030BD4C08002306E058004019DF
:1015200000F007F8D0545B1C9BB2A342F6D32046D0
:1015300030BD0178412901D2303904E0612901D25E
:10154000373900E0573909074078090E412801D2A0
:10155000303904E0612801D2373900E057394018AA
:10156000C0B2704710B500220DE0835C302B0CD365
:101570001C463A3C072C08D30D3C1A2C05D3662B8D
:1015800003D8521C92B28A42EFD38A4201D1012081
:1015900010BD002010BD30B50446C80701D00020A2
:1015A00030BD4D0800231A4607E050000019FFF730
:1015B000C0FFC018521CC3B292B2AA42F5D3D8439E
:1015C000401CC0B230BD000070B5194900230E7830
:1015D00001220224174D002E04D0012E12D0022E1B
:1015E00014D121E03A2802D00D2802D002E04B802D
:1015F00000E00A704A88A854521C90B2488096288D
:1016000004D270BD3A2803D00A2805D00C7070BDF2
:101610000B7028704A8070BD0C704B88E8545B1CBE
:1016200005484B80027070BD3A28F1D070BD0000B3
:1016300002000020D82200203D00002002090A2AD2
:1016400001D2303200E037320007000F0A700A285A
:1016500001D2303000E0373048707047F3B50600F3
:1016600021D01949087800281DD0184C608800281E
:1016700019D000220A70C01E154D81B2681CFFF7F8
:1016800071FF002811D06088401F81B2681CFFF7ED
:1016900082FF024660882818001FFFF74AFF904229
:1016A00005D0022704E00020FCBD0120FCBD03277B
:1016B00060883246401F81B2681CFFF726FF0199FF
:1016C00008803846FCBD00003D00002002000020DC
:1016D000D8220020F0B507464804050C16460C46F3
:1016E000002306E058008119F85CFFF7A7FF5B1C98
:1016F0009BB2A342F6D32846F0BD000070B5002986
:1017000005D0002803D04A00521D962A01D9002096
:1017100070BD0F4C3A222270621CFFF7DBFF401CA9
:1017200085B2681E81B2601CFFF735FF6119FFF7B3
:1017300085FFAD1CA8B20D212154401C80B20A21A6
:101740002154401C81B2204600F054F980B270BD93
:10175000B40100208307FF22DB0E9A408907090E9F
:10176000994000280BDA0007000F08388308084862
:101770009B001818C36993430B43C36170478308E8
:1017800004489B001B181868904308431860704772
:1017900000ED00E000E400E0FEB501226946002013
:1017A000FEF740FE2C48694600780978884204D04C
:1017B0001C2229490020FEF74BFE1C22274900204D
:1017C000FEF730FE25490024084624384A78027086
:1017D0008A784270CA78827001AA03230D192D7984
:1017E0001E1B1555F600B5404669641CAD19E4B2E0
:1017F0004561042CF2D300240D192D7C1E1B1555B8
:10180000F600B5400669641CAD19E4B20561042C0C
:10181000F2D3114F0C3F0024BD600D192D7B1E1B10
:101820001555F600B540C668641CAD19E4B2C56034
:10183000042CF2D300247D600D192D7D1E1B15553F
:10184000F600B5408669641CAD19E4B28561042CCC
:10185000F2D33D60FEBD00001400002070020020A5
:1018600010B501F0AFFE02F0DFFB01F0B7FE10BDD6
:1018700010480168821511430160C1680E4A114089
:10188000C16001680D4A1140016081684908490042
:10189000816001680122920491430160C168FD22C8
:1018A00012049143C160002101610549C0038860B1
:1018B00070470000001002400C40FF88F6FFF6FE63
:1018C00000ED00E010B52148C16A01221143C16258
:1018D000416B0423194341630520000703680C2171
:1018E0008B43036003680824234303604368022496
:1018F000A343436083680B438360C3688B43C36027
:10190000C168C160016AF02399430162016A5023F2
:10191000194301620E48016837231B019943016096
:101920000C49C1620023836242618168FF24240262
:10193000A1430F2424022143816081689403214341
:101940008160436201681143016010BD00100240D4
:1019500000080140FFFF000010B50248FFF77DF8C6
:1019600010BD00009C22002010B509480749016005
:10197000002208498260416007490261C160FFF7A7
:1019800029F80348FFF758F810BD00000014014083
:101990009C2200203F0600000F27000070B502685F
:1019A00001239B07114C124D984203D0A04201D055
:1019B000A84203D17026B2434E683243984203D006
:1019C000A04201D0A84204D103231B029A43CB6852
:1019D0001A4380239A430B691A4302608A68C262E1
:1019E000096881620121416170BD00000008014069
:1019F0000014014030B502460020002905D0002A1D
:101A000003D00F4B1C78002C01D0002030BD0D4CB2
:101A1000962903D99621155C2554401C8842FAD397
:101A20001020052212079061074822788262012265
:101A30005A701970026840231A430260084630BD8C
:101A40003A0000206E23002000480040FFB581B01E
:101A500017460E4604460A9D09E0681C07D0FEF7AB
:101A600029FE0499401AA8420CD8002D0AD02068FB
:101A7000C1693046884318D00020B842EDD000201C
:101A800005B0F0BD20680168FF22A13291430160DA
:101A90002068816849084900816020206067A0674C
:101AA0000020603420740320EAE70120E5E700000D
:101AB00070B500F0ADF84D48816B012292041143DE
:101AC00081634B48C169FF221202914301229203B4
:101AD0008918C1614749C0040860474C2068400824
:101AE00040002060454946488A78012A09D0022AE8
:101AF000226803D002400C32226007E002404148D5
:101B000002E022680240404810182060606803220A
:101B1000120390436060A0680B2212029043A06001
:101B200049784B22D20139480B0000F0ABF9085636
:101B3000050F562E38424C5600684B23010E00020A
:101B40001B010022C01851415A0008E000684B23D5
:101B5000010E00025B010022C01851415A0000230F
:101B6000FEF75CFBE06060680921C90288436060A1
:101B7000A0682A218843A0602068202108432060B3
:101B8000206801210843206070BD00684B23010ECE
:101B90000002DB010022C01851415A00DFE7006853
:101BA0004B23010E00021B020022C01851415A00B3
:101BB000D5E70068E123010E0002DB010022C01816
:101BC00051415A00CBE70068E123010E00021B02DD
:101BD0000022C01851415A00C1E700684B25010E90
:101BE0000002AD01002340195941B8E7001002403E
:101BF00000E400E000E100E0004800404C0200206A
:101C0000F369FFEF0C0400000C0600004C010020FB
:101C10001748C16A01221143C1620520000702680A
:101C2000032109028A4302600268FF2301331A4339
:101C30000260436810229343436083680B438360D0
:101C400082620168F022914301600168A022114381
:101C5000016041680C2291434160016AFF22120237
:101C600091430162016A33225202114301627047BB
:101C70000010024010B50248FEF754FD10BD0000F0
:101C80008C22002010B50648012141607D214901C8
:101C90008160C16003490160FEF712FD10BD0000C4
:101CA0008C2200200030004008B56E4E00256E4C9E
:101CB000FFF7E0FFFFF7ACFB6C480178002943D049
:101CC00005706946A06901F0A1F804226946142054
:101CD000FEF7BEFB6946E06801F098F80422694609
:101CE0000C20FEF7B5FB6946206901F08FF804224D
:101CF00069461020FEF7ACFB6079002808D0E06947
:101D00003C211E30FEF760FA2269E168891801E083
:101D10002169E068401806216061FEF755FA6946BE
:101D2000606101F073F8042269461046FEF790FBEB
:101D30006079012822D02079022822D030883C21E5
:101D40001E30FEF741FAE061494801780029AFD022
:101D500005700121052049020007FEF79FFC0700DE
:101D600014D00120FFF784F84248007800285DD0A5
:101D70006079002F0CD0012831D03EE03E48E16868
:101D800001E03E4821690088081ADCE70020E9E705
:101D900002280DD13849A089088030883C211E30A6
:101DA000FEF712FA21694018206135483580058018
:101DB0002079012805D13049A08908803048358034
:101DC0000580012060712E483C210088401CFEF7F0
:101DD000FBF9002928D1E068401CE06023E0274996
:101DE000208A088030883C211E30FEF7EDF9E1683A
:101DF0004018E0602248358005802079012805D10F
:101E00001E49208A08801E483580058002206071A6
:101E10001B483C210088401CFEF7D6F9002903D15D
:101E20002069401C20613580022019E0607901287A
:101E300002D0022809D011E030883C211E30FEF784
:101E4000C3F9E1684018E06007E030883C211E30AB
:101E5000FEF7BAF9216940182061358065710120CB
:101E6000207125E7380000204C02002032000020BD
:101E700031000020300000200C0000201000002065
:101E80003600002030B47446641E2578641CAB42D2
:101E900000D21D46635D5B00E31830BC18470000AC
:101EA000002806D002060D49120E03D0C0B2085C0D
:101EB000401C70470204120E04D00004000E085C9F
:101EC000093070470202120E04D00002000E085CB6
:101ED00011307047000E085C19307047B245000899
:101EE00002E008C8121F08C1002AFAD170477047E3
:101EF000002001E001C1121F002AFBD17047000041
:101F000003480168814201D00120704700207047DA
:101F100010010020F7B58AB00646002400E0641CDA
:101F2000305D202804D0092802D00B988442F6D3D3
:101F3000002C33D01B481C4F0568A01D089014E0EE
:101F400006221AA12868FEF7F4F900280CD12868A7
:101F500022463146801DFEF7ECF9002804D129689D
:101F60000898085C002804D0083538688542E7D313
:101F700014E06C68002C11D020216846FEF797F918
:101F80006A4630460B9901F023F8002806D06946CE
:101F9000A0470C99086000200DB0F0BD0020C043A0
:101FA000FAE7000030010020340100205F5F636D1C
:101FB000645F0000FEB5044609A8E0C81946204643
:101FC0001C30089B2062A262E162E06165631846F2
:101FD0002A462321236301F010FC616B206B104B18
:101FE0004218121FE16AA06A01F0D0FA214660622D
:101FF00020318E774E770020E76420642765A06348
:10200000087760318860C8600090019023462046C0
:10201000044A1946543002F076F80020FEBD000054
:10202000353D0008713F000810B5029C640864004B
:102030004474826241620021C36201631C304060CB
:10204000006010BD1C3006C808384A6006C8083851
:10205000116040600060704710B500F087FB002001
:1020600010BD10B500F052FD002010BD10B5114894
:1020700041692031497A890703D40F49002008704B
:1020800015E00169002904D080220B48FEF726F9EB
:102090000DE000F09BFF002801D008A100E009A19D
:1020A0000548FEF73DF909A10348FEF70BF9024880
:1020B00010BD000030010020BC2700206D73682097
:1020C0000000000066696E73682000003E0000009A
:1020D0000549FD234969C00720314A7A800F1A401B
:1020E00002434A727047000030010020014A03C2D7
:1020F00070470000300100207CB517491748FFF7F2
:10210000F5FF8021012001F0BBF8154C002860612B
:102110001BD00A2115200123019100909B0200226F
:10212000104911A001F0E5FD054600231A4610A153
:10213000606901F07DFC0120FFF7CAFF002D02D08D
:10214000284601F0DFFE00207CBD0BA001F080FAE4
:102150000020C0437CBD00002049000870480008F2
:102160003001002091210008747368656C6C0000D8
:1021700073687278000000006E6F206D656D6F727D
:102180007920666F72207368656C6C0A000000002D
:10219000924D012668692030417A31434172FFF740
:1021A00065FF01F055FA002701F032F90400FBD475
:1021B00068691B2C07D0014620310A7A012A05D014
:1021C000022A0AD012E020300672EDE75B2C01D023
:1021D0000F720BE002200872E6E70F72412CE3D089
:1021E000422CE1D0442C36D0432C40D0002CDBD004
:1021F000FF2CD9D0092C4CD07F2C73D0082C71D057
:102200000D2C6ED00A2CFCD0014640314A8F502A4A
:1022100000D34F878B8F498F8B427DD2CA1A0146DC
:102220002A312B305918181801F0D0FA68697C212E
:10223000095A2A300C5468692921095CC90706D05B
:102240007C21095A2A30091865A001F001FA686951
:102250004030848FA3E04030808F0028A4D061A05C
:1022600001F0F6F969694031888F401E36E0014679
:1022700040310A46898F528F914295D22A30095CAB
:1022800059A001F0E5F968694030818F491C8187C8
:102290008AE7002403E053A001F0DAF9641C6869BE
:1022A0004030808FA042F6DC6C6950A02A3401F0E7
:1022B000CFF900F08BFE012802D1204600F0C2FDCC
:1022C000FFF7D4FE0146224649A001F0C1F9686932
:1022D0002A30FEF710F8696940314887888763E73C
:1022E00000E03AE0014640318B8F002BD0D04A8F7E
:1022F0005B1E521E92B29BB24A878B879A4223D9A9
:1023000015392A30D21A5918181801F05FFA68697D
:102310007A21095A2A3000E047E00F5468697C218D
:10232000095A2A30091834A001F092F9686940303E
:10233000848F03E02BA001F08BF9641C68694030A6
:10234000408FA042A4DBF5E72DA001F081F9686978
:102350007A21095A2A300F5426E700F037FE012867
:102360000DD168692030407AC00702D01FA001F06B
:102370006FF968697A21095A2A3000F0BBFDFFF72E
:1023800075FE01F065F9686950212A30FDF78FFF6D
:10239000686940301FE013A001F05AF9641C6869B5
:1023A0004030408FA042F6DC0AE02A300C546869C5
:1023B0002030407AC00703D021460BA001F048F935
:1023C00068694030418F491C89B24187828F521C15
:1023D00082875029C0D347878787E5E630010020F0
:1023E0002573000008000000256300000A000000BB
:1023F00025732573000000000825732020080000C5
:102400000820080010B502A001F022F9002010BD3C
:1024100048656C6C6F2052542D546872656164215C
:102420000A00000070B50CA001F012F90F48104D21
:1024300004680BE002220FA12068FDF77AFF002854
:1024400003D00DA0216801F003F908342868844204
:10245000F0D3002070BD00002D2D46756E637469A9
:102460006F6E204C6973743A0A000000300100203E
:10247000340100205F5F000025730A00F0B591B0C1
:1024800000262BA4082308AA042102A800F08CF837
:10249000102001460790224627A001F0D9F807989E
:1024A00000F0FEFD2DA001F0D3F802A9304600F0A7
:1024B0008BF80646002532E0A80008A90C58143C09
:1024C000FDF716FE217C6A464906127C490E9142B0
:1024D00002D0FDF711FE21E0FDF70EFE2746E06970
:1024E0001C37B84212D0384601F0E0F8616A00911A
:1024F00001902346102221A0079901F0A9F838463F
:1025000001F0C8FF14A001F0A3F807E0606A009092
:10251000234610221FA0079901F09AF86D1C069817
:10252000A842C9DC002EC0D1002011B0F0BD0000CF
:102530006576656E74000000252D2A2E73202020FC
:102540002020207365742020202073757370656EC1
:1025500064207468726561640A00000020202D2DDB
:102560002D2D2D2D2D2D2D2D202D2D2D2D2D2D2DA8
:102570002D2D2D2D2D2D2D0A00000000252D2A2E6C
:102580002A73202030782530387820253033643A7B
:1025900000000000252D2A2E2A73202030782530B7
:1025A000387820300A000000F8B504461E46174669
:1025B0000D46084601F088F9001D2060257267600D
:1025C0000020E6602061F8BDF8B50D4600212961C4
:1025D000E968002914D0297A002911D02E68002832
:1025E00010D00446FDF784FD014620461438007CD7
:1025F0002A7A4006400E904208D00846FDF77CFD3E
:102600000020F8BD3446FDF773FD014668680027D9
:102610002468B44201D1002404E010C0EA687F1CA1
:10262000BA42F5D10846FDF767FD20462F61F8BD97
:10263000F0B591B000262EA4082309AA052103A80D
:10264000FFF7B2FF10200146089022462AA000F0B2
:10265000FFFF089800F024FD30A000F0F9FF03A967
:102660003046FFF7B1FF0646002539E0A80009A96A
:102670000C58143CFDF73CFD217C6A464906127D4E
:10268000490E914202D0FDF737FD28E0FDF734FDF9
:102690002746E0691C37B842384613D001F006F8E7
:1026A000218D628D0092019102902346102222A07A
:1026B000089900F0CDFF384601F0ECFE24A000F0B0
:1026C000C7FF0CE000F0F2FF218D628D00920191B6
:1026D0000290234610221FA0089900F0B9FF6D1C3C
:1026E0000798A842C2DC002EB9D1002011B0F0BD7D
:1026F0006D61696C626F7800252D2A2E7320656EDE
:102700007472792073697A652073757370656E646D
:10271000207468726561640A00000000202D2D2D70
:102720002D20202D2D2D2D202D2D2D2D2D2D2D2D00
:102730002D2D2D2D2D2D0A00252D2A2E2A732025F5
:102740003034642020253034642025643A000000B1
:102750000A000000252D2A2E2A73202530346420FB
:1027600020253034642025640A00000010B5074C91
:1027700007A0E16800F06CFF0AA0216900F068FF83
:102780000DA0616900F064FF10BD00007C00002016
:10279000746F74616C206D656D6F72793A20256479
:1027A0000A00000075736564206D656D6F72792095
:1027B0003A2025640A0000006D6178696D756D200E
:1027C000616C6C6F6361746564206D656D6F7279A7
:1027D0003A2025640A000000F0B591B000262CA430
:1027E000082308AA062102A8FFF7DEFE10200146F2
:1027F0000790224629A000F02BFF079800F050FC1C
:102800002DA000F025FF02A93046FFF7DDFE0646A9
:10281000002535E0A80008A90C58143CFDF768FC19
:10282000217C6A464906127C490E914202D0FDF78E
:1028300063FC24E0FDF760FC2746E0691C37B842E2
:10284000384611D000F032FFA18D0091019023464F
:1028500010221FA0079900F0FBFE384601F01AFE77
:1028600020A000F0F5FE0AE000F020FFA18D00910D
:102870000190234610221CA0079900F0E9FE6D1C70
:102880000698A842C6DC002EBDD1002011B0F0BDD4
:102890006D7367717565756500000000252D2A2E22
:1028A0007320656E7472792073757370656E642021
:1028B0007468726561640A00202D2D2D2D20202D55
:1028C0002D2D2D2D2D2D2D2D2D2D2D2D2D0A0000B5
:1028D000252D2A2E2A732025303464202025643AA1
:1028E000000000000A000000252D2A2E2A73202552
:1028F000303464202025640A00000000F0B591B057
:10290000002623A4082309AA032104A8FFF74CFEEC
:1029100010272246394620A000F09AFE384600F0E3
:10292000BFFB26A000F094FE04A93046FFF74CFE42
:102930000646002524E0A80009A90C58143CFDF720
:10294000D7FB217C6A464906127E490E914202D08D
:10295000FDF7D2FB13E0FDF7CFFB20461C3000F063
:10296000A5FE2721095DA26A10230093019202911E
:10297000039023461022394618A000F069FE6D1C12
:102980000898A842D7DC002ECED1002011B0F0BDAF
:102990006D75746578000000252D2A2E7320202087
:1029A0006F776E65722020686F6C6420737573702A
:1029B000656E64207468726561640A00202D2D2D97
:1029C0002D2D2D2D2D202D2D2D2D202D2D2D2D2D51
:1029D0002D2D2D2D2D2D2D2D2D0A0000252D2A2EAE
:1029E0002A7320252D382E2A732025303464202583
:1029F000640A0000F0B591B000262CA4082308AAB0
:102A0000022102A8FFF7D0FD1020014607902246C0
:102A100029A000F01DFE079800F042FB2DA000F059
:102A200017FE02A93046FFF7CFFD0646002535E028
:102A3000A80008A90C58143CFDF75AFB217C6A46F3
:102A40004906127C490E914202D0FDF755FB24E065
:102A5000FDF752FB2746E0691C37B842384611D0D3
:102A600000F024FEA18C00910190234610221FA0AB
:102A7000079900F0EDFD384601F00CFD14A000F0C0
:102A8000E7FD0AE000F012FEA18C009101902346C0
:102A900010221AA0079900F0DBFD6D1C0698A842D1
:102AA000C6DC002EBDD1002011B0F0BD73656D6194
:102AB00070686F7265000000252D2A2E7320762025
:102AC000202073757370656E64207468726561642C
:102AD0000A000000202D2D2D202D2D2D2D2D2D2DEA
:102AE0002D2D2D2D2D2D2D0A00000000252D2A2EF7
:102AF0002A7320253033642025643A00252D2A2EA0
:102B00002A7320253033642025640A00F0B5B5B05F
:102B100000263FA408232DAA012102A8FFF744FDA7
:102B200010200146089022463B4800F091FD08988D
:102B300000F0B6FA39A000F08BFD02A93046FFF78D
:102B400043FD064600255AE0A8002DA90C58143C68
:102B5000FDF7CEFA0746207C69464006097C400E08
:102B6000884203D03846FDF7C7FA47E09022214655
:102B700009A8FDF783FB3846FDF7BEFA2746203744
:102B8000787F00902346102234A0089900F060FD61
:102B9000387F0007000F012808D0022808D000283D
:102BA00008D0042808D0032808D00AE02EA006E0A8
:102BB00030A004E032A002E034A000E036A000F033
:102BC00047FD206B074600E0401C01782329FBD01D
:102BD000616BC01B081A0791642148430799FDF7F0
:102BE000F3FA0346A16B206D01910090606A07998A
:102BF000381A41182BA0079A00F02AFD6D1C069880
:102C0000A842A1DC002E98D1002035B0F0BD000014
:102C1000746872656164000018480008202D2D2D2D
:102C200020202D2D2D2D2D2D2D202D2D2D2D2D2DFB
:102C30002D2D2D2D202D2D2D2D2D2D2D2D2D2D20DE
:102C4000202D2D2D2D2D2D20202D2D2D2D2D2D2DDB
:102C50002D2D2D202D2D2D0A00000000252D2A2E92
:102C60002A73202533642000207265616479202056
:102C7000000000002073757370656E640000000032
:102C800020696E69742020200000000020636C6FB2
:102C900073652020000000002072756E6E696E67FB
:102CA000000000002030782530387820307825303A
:102CB000387820202020253032642525202020301F
:102CC000782530387820253033640A00F0B58FB08D
:102CD000002626A4082307AA0A2102A8FFF764FCFD
:102CE00010272246394623A000F0B2FC384600F0F7
:102CF000D7F92AA000F0ACFC02A93046FFF764FC2B
:102D00000646002524E0A80007A90C58143CFDF74E
:102D1000EFF9217C6A464906127C490E914202D0A5
:102D2000FDF7EAF913E0FDF7E7F9216BE06A01919D
:102D3000009023461022394621A000F089FC607CD7
:102D4000C00701D024A000E026A000F081FC6D1C8B
:102D50000698A842D7DC002ECED101F05FF90146DB
:102D600024A000F075FC00200FB0F0BD74696D6503
:102D700072000000252D2A2E732020706572696F65
:102D800064696320202074696D656F75742020204C
:102D900020202020666C61670A000000202D2D2D68
:102DA0002D2D2D2D2D2D2D202D2D2D2D2D2D2D2D60
:102DB0002D2D202D2D2D2D2D2D2D2D2D2D2D0A00A0
:102DC000252D2A2E2A732030782530387820307827
:102DD000253038782000000061637469766174657D
:102DE000640A000064656163746976617465640AED
:102DF0000000000063757272656E74207469636B05
:102E00003A3078253038780A0000000003B568466B
:102E1000C078087068468078487068464078887046
:102E200068460078C8700CBD01F096FB7D24E40074
:102E3000204601F01CF8FBE710B500F03DFAFFF763
:102E4000F3FF10BDF1B582B00298002500782C4642
:102E5000002803D02248234F066835E000210846A9
:102E600000F07CF8FEBD06221FA13068FDF761FA74
:102E7000002828D13068801D00900298FDF73BFAA9
:102E8000024600990298FDF754FA00281BD1002D44
:102E900004D1009C2046FDF72EFA054620460099F5
:102EA00001E0401C491C0278002A04D00B78002B5A
:102EB00001D09A42F5D0001BA84200DA05460CA0CA
:102EC000009900F0C5FB083638688642CBD3002C49
:102ED000C8D02A462146029800F06EFEFEBD0000D2
:102EE00030010020340100205F5F636D645F0000EB
:102EF00025730A0038B5044601E0491E641C207899
:102F00002028FAD00928F8D0002907D06A462046A0
:102F1000FFF700F8002803D0204604E0002038BD69
:102F2000009838BD401C0178202901D00029F9D132
:102F300000210170214603A000F08AFB0020C0435D
:102F400038BD000025733A20636F6D6D616E64209B
:102F50006E6F7420666F756E642E0A0070B50EA0D9
:102F600000F076FB1348144D04680CE0062213A110
:102F70002068FDF7DEF9002804D1216811A0891D21
:102F800000F066FB083428688442EFD30EA000F0FE
:102F90005FFB002070BD000052542D5468726561C3
:102FA00064207368656C6C20636F6D6D616E647313
:102FB0003A0A000030010020340100205F5F636D99
:102FC000645F0000257320000A00000001207047A4
:102FD000F8B5002317461C461D464AE00570401C04
:102FE0005B1C0278202A01D0092A01D18B42F5D33B
:102FF000082C10D321A000F02BFB002505E0A80031
:10300000395826A000F024FB6D1CA542F7D322A05E
:1030100000F01EFB2FE08B422DD2D2B2222A03D029
:10302000A200B850641C1BE0A600401C5B1CB851F9
:10303000641C08E05C2E04D14278222A01D1401C95
:103040005B1C401C5B1C0678222E01D08B42F1D306
:103050008B4210D20570401C5B1C0AE0401C5B1CBC
:103060000278202A03D0092A01D08B42F6D38B4262
:1030700001D28B42B5D32046F8BD0000546F6F20BB
:103080006D616E7920617267732021205765206F12
:103090006E6C79205573653A0A0000002573200094
:1030A00010B5044602E003A000F0D2FA641EFAD282
:1030B00010BD00002D00000030B5144942680B68B7
:1030C0001C46D218083490420ED05588002D0BD1E2
:1030D0004D68AA4208D08D68954200D18860556835
:1030E00045605268C51A15518268D21882420BD0C9
:1030F0005588002D08D18D68854200D18A604168CD
:1031000051604068D11A015130BD00007C000020A0
:10311000FFB589B00446149E1298139F0190009742
:10312000700601D54A4801E0494811380890F00678
:1031300001D576087600F00701D0302000E020208D
:10314000079000200690B0070DD5002A03DA2D2045
:103150005242069007E0700701D52B2002E03007AD
:1031600001D5202006900025002A04D13020694690
:10317000087201250CE00C980A2815D01107090FD8
:1031800012090898415C02A841556D1C002AF2D131
:10319000BD4200DD2F460198112132460A40C01B76
:1031A0002021002A06D015E010460A21FDF70CF870
:1031B0000246E6E7069A002A08D0002806DD401EEF
:1031C00004E00A9A944200D22170641C0246401E18
:1031D000002AF6DC069A002A06D00A9A944201D206
:1031E000069A2270401E641CF20606D509E00A9A6F
:1031F000944201D2079A2270641C0246401E002AA3
:10320000F5DC30223B467F1EAB420CDD0A9B9C4224
:1032100000D22270641CF5E70A9B9C4201D2535DE8
:103220002370641C00E002AA2B466D1E002B08DDF3
:10323000009B002BF0D104E00A9A944200D2217046
:10324000641C0246401E002AF6DC20460DB0F0BD8C
:10325000C34600081CB514210A20012301910090E7
:103260005B020022034904A000F043FD00F04AFE87
:103270001CBD0000392E00086D61696E0000000061
:1032800070B504464C43204600F02CFA050003D0EC
:103290002246002100F0B1FA284670BD70B5044CFA
:1032A000044D02E020688047241DAC42FAD370BD73
:1032B000604800086448000870B5044C044D02E002
:1032C00020688047241DAC42FAD370BD64480008D2
:1032D0006C48000810B5FCF70BFF034A5188491CE5
:1032E0005180FCF709FF10BD0401002010B5FCF768
:1032F000FFFE0A4C6188491E09B26180002909DC81
:1033000000216180FCF7F8FE6068002801D000F021
:1033100019FB10BDFCF7F0FE10BD000004010020F9
:1033200070B5002832D01A4D296888422ED36968BA
:1033300088422BD2044600210C3CC943154800F0BA
:10334000A1FB6088F5267601002802D02088B042D3
:1033500008D011A000F07CF923886288214615A0CE
:1033600000F076F9002060802680A868844200D2B0
:10337000AC6029686068611A401A2969081A2861D6
:103380002046FFF799FE034800F062FB70BD000085
:103390007C00002094260020746F206672656520F2
:1033A0006120626164206461746120626C6F636B90
:1033B0003A0A00006D656D3A203078253038782C57
:1033C000207573656420666C61673A2025642C2043
:1033D0006D6167696320636F64653A2030782530DA
:1033E00034780A00004870478C020020004870477B
:1033F0008C22002010B501F075F8FFF74FFFFFF7A2
:10340000F5FF0446FFF7EEFF214600F0E9FB10BD93
:1034100010B50E4C00212068C943C269D243920600
:1034200009D47D23DB0004222046FDF701FC21683E
:103430002020086208E0C169C943090701D40821B6
:1034400001620A2000F013FDFF2010BD04240020BB
:10345000F8B506460D20694608700E48002404742D
:10346000304600F0A1FB054611E0305D0A2806D188
:10347000084801231A4669466038FDF75BFC054899
:10348000012331191A466038FDF754FC641CAC4224
:10349000EBD3F8BD642400200446C16913A000F0FA
:1034A000D7F816A0A16900F0D3F818A0616900F060
:1034B000CFF81AA0216900F0CBF81CA0E16800F059
:1034C000C7F81EA0A16800F0C3F820A0616800F052
:1034D000BFF822A0216800F0BBF82448016824A0AE
:1034E00000F0B6F8FFF712FBFEE700007073723AC7
:1034F000203078253038780A000000002070633AC8
:10350000203078253038780A00000000206C723AAC
:10351000203078253038780A000000007231323AC5
:10352000203078253038780A000000007230333AB5
:10353000203078253038780A000000007230323AA6
:10354000203078253038780A000000007230313A97
:10355000203078253038780A000000007230303A88
:10356000203078253038780A00000000080100205B
:1035700068617264206661756C74206F6E20746877
:10358000726561643A2025730A000000F0B50546B3
:10359000121DD008C0004038094E02460024A70082
:1035A000641CD651102CFAD3116200215162916231
:1035B000D16230322AC201210906C163F0BD000088
:1035C000EFBEADDE10B5FCF793FD034A1178491C40
:1035D0001170FCF791FD10BD7800002010B5FCF7CC
:1035E00087FD034A1178491E1170FCF785FD10BD57
:1035F0007800002010B500681C3800F03EFC002068
:1036000010BDF8B5064614460D46084600F090FC7D
:103610002F461C37002C15D0012C17D120353468CB
:103620000CE0212120466A7F095D1C388A4204D2C1
:1036300039461C3000F033F802E02468B442F0D17F
:10364000B44203D13946304600F029F80020F8BDD5
:103650000FB410B503AB7F210548029A00F0C6FDF8
:103660000348FFF7F5FE10BC08BC04B01847000083
:10367000142600200268516002680A6001604860F8
:1036800070470268516002680A60016048607047D4
:103690000268516002680A600160486070474268D1
:1036A000116042684A60416008607047024600212C
:1036B00000E0491C00689042FBD10846704706C8EC
:1036C00008384A6006C808381160406000607047DA
:1036D00006C808384A6006C80838116040600060B3
:1036E00070470000F8B5002807D0C01C354C86088C
:1036F000E068B600864201D90020F8BD0C2E00D249
:103700000C260021C943304800F0BCF9A0682168AC
:10371000E2688646401A9446921B4CE00D186B886E
:10372000002B47D16B681B1A0C3BB34242D36A682B
:10373000131A324618320C3B93422DD383190C33A3
:10374000F527CA187F011780002757806F685760D8
:10375000906001206B606880506862460C32904235
:1037600002D00A4608328350206980190C3020614B
:103770006269824200D26061F5204001288075456F
:1037800012D1A0684288002A0ED0626890420BD005
:1037900040684018A060F5E70120688068686A1AF0
:1037A000801A22698018E2E7074800F051F928469C
:1037B0000C30F8BD68688242B0D8034800F048F980
:1037C0009AE700007C0000209426002010B50346F4
:1037D00099420FD28C189C420CD9811803E0641EC8
:1037E0002378491E0B70521EF9D210BD0C781C7044
:1037F000491C5B1C521EF9D210BD30B50346C9B23C
:10380000042A16D3840714D10D020D432C042C4333
:1038100005E01C605C609C60103ADC601033102A8C
:10382000F7D201E010C3121F042AFBD201E0197085
:103830005B1C521EFBD230BDF8B50F46064600F0A9
:1038400043F80546C068FFF74DFF040018D000217B
:10385000EA68FFF7D2FF2674002060741022394610
:10386000204600F0A9F9FCF743FC06462146143136
:10387000281DFFF7FFFE3046FCF73EFC2046F8BD52
:103880000020F8BD70B5044600202074FCF730FC21
:10389000054620461430FFF712FF2846FCF72CFCA3
:1038A0002046FFF73DFD70BD70B504460020207432
:1038B000FCF71EFC054620461430FFF700FF2846A3
:1038C000FCF71AFC70BD0000064A00210B01D35C16
:1038D000834202D1080180187047491C0729F5DB93
:1038E0000020704794000020F8B5044616460D46A7
:1038F0000846FFF7E9FF0746FFF7ECFC381D79683B
:1039000000E009688142FCD1FFF7F0FC802005430C
:10391000257410223146204600F04EF9FCF7E8FBF2
:10392000054621461431381DFFF7A4FE2846FCF752
:10393000E3FBF8BD007C000601D5012070470020A4
:103940007047000070B5FCF7D3FB124C0546608849
:10395000002815D1A068FEF7A3FA401E0E4AC10048
:10396000515862681C3991420AD020700B4861603E
:103970000078002808D0104624302431FCF7BFFB23
:103980002846FCF7B9FB70BD104624302431FCF703
:10399000B6FBF5E704010020BC26002078000020DB
:1039A00010B50446FCF7A4FB024620462030017FF8
:1039B00009090901491C0177407F0A49C0004118E3
:1039C00020464B681C3018604B6823624860E161F8
:1039D0000548216C8368194381601046FCF78CFB15
:1039E00010BD0000BC2600200401002010B50446D4
:1039F000FCF77EFB21461C310CC9083953600CC909
:103A000008391A60496009603D21095DCA0006490C
:103A10008B5851188B4204D10449236C8A689A430D
:103A20008A60FCF769FB10BDBC2600200401002061
:103A3000F8B516460A461F4605460221FFF754FF11
:103A40002C461C342C62EC61AE846F740020F8BDEF
:103A500070B50446FCF74CFB05462046E1691C3076
:103A6000814207D0FFF7C6FD2846FCF745FBFFF76C
:103A700069FF05E0A08C401CA0842846FCF73CFBB5
:103A8000002070BD73B50546FCF732FB0646A88CD6
:103A9000002805D0401EA8843046FCF72DFB22E00C
:103AA0000198002821D000F007FA04460020A06306
:103AB00028466A7C21461C30FFF7A3FD01980028A8
:103AC00009DD2046543001AA0021054600F0F2FA33
:103AD000284600F02BFB3046FCF70EFBFFF732FFC9
:103AE000A06B002800D100207CBD3046FCF704FB11
:103AF0000120C0437CBD000008B509A0FFF7A8FD68
:103B00000AA0FFF7A5FD12A0032300900122194689
:103B100012A0FFF79DFD19A0FFF79AFD08BD000058
:103B20000A205C207C202F0A000000002D20525427
:103B3000202D2020202020546872656164204F7061
:103B400065726174696E672053797374656D0A00DC
:103B50004A756E203130203230323000202F207CE8
:103B6000205C202020202025642E25642E25642022
:103B70006275696C642025730A00000020323030C1
:103B800036202D203230313920436F7079726967C9
:103B900068742062792072742D7468726561642083
:103BA0007465616D0A000000014600E0491C0A7856
:103BB000002AFBD1081A704710B5002A08D0034626
:103BC0000C781C70491C5B1C002C05D0521EF7D1D0
:103BD00010BD19705B1C00E00021521EF9D110BD10
:103BE0000A46C11C8908930810B589009B00182B50
:103BF0001ED91C46183C8C421AD3581A0F4C183840
:103C00002160F522E06052010A8000230C308B60B5
:103C100048604B80411861600A8001224A804860F8
:103C2000886007A10848FFF703FF2068A06010BD67
:103C3000014606A0FFF70CFD10BD00007C0000202F
:103C40006865617000000000942600206D656D209D
:103C5000696E69742C206572726F72206265676983
:103C60006E206164647265737320307825782C202F
:103C7000616E6420656E6420616464726573732094
:103C8000307825780A00000010B5002209480A4C57
:103C900042801146CB001B195B60491C1B60202928
:103CA000F8DB1F2101704260826002480C304060E6
:103CB000006010BD04010020BC26002010B5074C98
:103CC000A068FEF7EDF8401E0549C00008581C38F2
:103CD00060602430FCF74BFA10BD000004010020A6
:103CE000BC26002001484060006070471C01002095
:103CF0007047FFB585B01D4601200E9F0F9E0599A8
:103D0000FFF79AFD041E0DD02846FFF7EBFC0028B4
:103D10000AD069460396A1C105A90EC92046FEF73F
:103D200049F9204609B0F0BD2046FFF7ABFD002061
:103D3000F8E7000070B513480468FCF7D9F90546A8
:103D40002046FFF753FE04213C2001552046543005
:103D500000F0C9F92046FFF7EDFD012803D18820C6
:103D6000005900280AD021461C310748FFF789FC7A
:103D70002846FCF7C1F9FFF7E5FD70BD2046FFF7C7
:103D800093FDF5E7080100201001002000F002F883
:103D9000FCE7000070B52AE0FCF7AAF90546FEF73B
:103DA000AFF800282DD0194801680C4605C908391C
:103DB000426005C90839106049601C3C0960FFF782
:103DC00089FA88200159002901D0204688472046D9
:103DD000FFF7B0FD01280FD0FFF788FA2846FCF75F
:103DE0008BF9206BFFF79CFA2046FFF74BFDFEF79F
:103DF00087F80028D0D170BD2046FFF755FDFFF7AA
:103E000075FA2846FCF778F970BD00001001002013
:103E10001FB5202307481F22D9006C460FC400237A
:103E2000054A06A1903800F00DF80248903800F0DD
:103E300069F81FBD142500208D3D00087469646C6D
:103E400065000000FFB585B00FADE0CD0C460A4619
:103E500001210598FFF748FD0E986A46E1C2214608
:103E6000089B079A0598FEF7A5F809B0F0BD10B5B4
:103E700000F0BCF800F026F810BD70B50446203004
:103E8000007F0007000F022802D00020C04370BD51
:103E9000FCF72EF9054620461C30FFF719FC20469A
:103EA000543000F08BF92846FCF726F92046FFF73E
:103EB00077FD002070BD00000148006870470000D9
:103EC00008010020F1B5FCF713F905460C48046819
:103ED000204600F02DF8204654306A460021064660
:103EE00000F0E8F8304600F021F92846FCF704F924
:103EF000FFF728FDA06B801C00D1A0630020F8BD57
:103F00000801002010B5014620318A7F01234A773D
:103F10009340022203640A77FFF7AFFF034800686B
:103F2000002801D0FFF70EFD002010BD0801002081
:103F300070B5054604462035287F0007000F01288C
:103F400002D00020C04370BDFCF7D2F80646287F9F
:103F500000090001801C28772046FFF747FD204616
:103F6000543000F02BF93046FCF7C6F8002070BD45
:103F700010B504460120C043A06320461C30FFF763
:103F8000A7FB2046FFF70CFDFFF7DCFC10BD00008F
:103F900070B5FCF7ADF805461248006806462036B5
:103FA000317F0907090F012917D1026AC1699142BE
:103FB00013D01C300446FFF78BFB707F0A49C0000A
:103FC000401841680C604168616044602060284688
:103FD000FCF792F8FFF7B6FC02E02846FCF78CF8F5
:103FE000002070BD08010020BC26002070B500280C
:103FF00002DA0020C04370BD7D25ED002946FCF7A4
:10400000F9F82A46424328464143401E0818144600
:104010002946FCF7EFF8001970BD00000148006860
:10402000704700007400002010B508480168491C62
:104030000160FFF741FF016D491E016503D1C16CAD
:104040000165FFF7A5FF00F003F810BD7400002024
:10405000F8B5FFF7E3FF0646FCF74AF80746134DAD
:104060001DE060691249301A1C3C88421AD2204671
:10407000FDF7E8FF616AA06A8847FFF7CFFF0646B1
:10408000607C810708D5C10706D0400840006074F5
:10409000204600F04BF802E04008400060742C68B5
:1040A000AC42DED13846FCF727F8F8BD1C010020F1
:1040B000FFFFFF7F002909D0012904D0022908D081
:1040C00003290ED109E0C06A10600AE01168C162DC
:1040D00007E0417CFD22114002E0417C02221143B5
:1040E00041740020704770B50546FCF701F804469E
:1040F0002846FDF7A7FF2046FBF7FEFF2846FFF7FF
:10410000D3FB002070BDFFB581B00A461F460646AE
:104110000A210B9D0A9CFFF7E7FB23463A460095D0
:1041200030460399FDF780FF05B0F0BDF8B50446B1
:10413000FBF7DEFF05462046FDF784FF607C400864
:10414000400060742846FBF7D7FFFFF767FFE16A7E
:1041500040182063FBF7CCFF164B0021CA000093E8
:10416000D3180546684689005B6846580CE03668F7
:10417000B446B61A7769266BB74203D0BF1B0E4E02
:10418000B74203D3664646509E42F0D10948001F0D
:104190000168491C016021461C310098FFF778FA3C
:1041A000607C0121084360742846FBF7A5FF0020CE
:1041B000F8BD00001C010020FFFFFF7F70B5044622
:1041C000407CC0070ED0FBF793FF05462046FDF765
:1041D00039FF2846FBF790FF607C40084000607480
:1041E000002070BD0020C04370BD0000FFB583B04B
:1041F000039C04982718A74203D20027FF43381BCB
:10420000049006E1252803D0BC4200D220700DE1C5
:104210000026042208230599491C059108782D28B9
:1042200012D02B2812D0202812D0232812D03028C8
:1042300012D00A780025ED43303A0A2A0FD205A899
:1042400000F040F9054616E0102006E01643E2E7CC
:104250001E43E0E7202000E001200643DBE72A2898
:1042600009D1491C0698059120C80690002D02DA54
:104270006D42102006430020C0430090059801784D
:104280002E2918D1401C059001780A46303A0A2A96
:1042900004D205A800F016F9009008E02A2908D1F8
:1042A000401C0590069802C8069000910846002818
:1042B00001DA00200090059900200A78682A01D0D0
:1042C0006C2A02D1491C1046059109780A236F29EE
:1042D0007CD00CDC63291FD004DC25297AD0582936
:1042E0000DD17DE064297FD0692908D17CE0702957
:1042F0005ED073292CD0752978D0782972D0BC4231
:1043000001D2252020700599641C0878002800D06F
:104310007AE7491E059179E0F00608D420206D1E49
:10432000002D04DDBC4200D22070641CF7E7069823
:104330000178001D0690BC4200D22170202002E0CE
:10434000BC4200D22070641C6D1E002DF8DC5DE0C4
:10435000069808C80690002B00D13DA31846FFF729
:1043600023FC0099002902DD884200DD0846F106A1
:1043700009D420212A466D1E824204DDBC4200D2AF
:104380002170641CF6E7002106E0BC4201D21A78D5
:104390002270491C5B1C641C8142F6DB20212A46EA
:1043A0006D1E824232DDBC4200D22170641CF6E7F1
:1043B000681C02D108250120064300980190069848
:1043C0000296009504C8102306901AE006E001E06A
:1043D0000CE007E0BC4229D2252017E7082305E0BE
:1043E00040210E43102301E002210E436C2801D02E
:1043F00068281DD0069804C806900098029600957B
:10440000019039462046FEF783FE04460598401C7D
:10441000059005980078002800D0F3E6049800285D
:1044200011D00020BC420CD220700CE0641CEDE7DF
:1044300006980188001D06908AB2B007DDD512B239
:10444000DBE7203FF877039807B0201AF0BD0000A3
:10445000284E554C4C290000002070470020704722
:10446000002070470020704710B5FBF741FEFEF7B3
:10447000C1FFFFF741FBFFF735FCFFF705FCFEF737
:10448000E9FEFFF735FCFFF7C3FCFFF717FC002040
:1044900010BD000070B5054604680BE021461C39CC
:1044A00006A0FFF7D5F82068A84202D004A0FFF7C5
:1044B000CFF82468AC42F1D170BD00002573000034
:1044C0002F0000000146002006E0531C0B600A2369
:1044D00012785843303810180A681378303B0A2B8A
:1044E000F3D3704700B51A4885B00168092291439B
:1044F000491C016041681F221202914382148918ED
:1045000041600F2000900120019000200290039054
:10451000014604906846FCF753F9FBF7C1FF0D48CC
:1045200001694908490001610120FCF7A1FCFCF781
:1045300001F9FDF731F9FDF7BBFAFDF7C3F9FDF716
:1045400013FAFDF79FFB0120FCF792FC05B000BDBC
:104550000010024000E000E0FEB50F4E0024371FBF
:1045600018202546454370590CA1FBF7CBFE0028C7
:1045700011D0A819017C4269001D019200910EC85A
:104580007059FFF7B6FB3860002801D0FFF7BAFC7E
:10459000641CE4B2E4E7FEBD44000020000000001B
:1045A00010B5FFF7A9FA002010BD075356312E3081
:1045B0002E3400000100020001000300010002008F
:1045C00001000400010002000100030001000200DC
:1045D00001000500010002000100030001000200CB
:1045E00001000400010002000100030001000200BC
:1045F00001000600010002000100030001000200AA
:10460000010004000100020001000300010002009B
:10461000010005000100020001000300010002008A
:10462000010004000100020001000300010002007B
:104630000100070001000200010003000100020068
:10464000010004000100020001000300010002005B
:10465000010005000100020001000300010002004A
:10466000010004000100020001000300010002003B
:104670000100060001000200010003000100020029
:10468000010004000100020001000300010002001B
:10469000010005000100020001000300010002000A
:1046A00001000400010002000100030001000200FB
:1046B0000100303132333435363738396162636462
:1046C000656600303132333435363738394142434C
:1046D000444546006C6973745F6D656D0068656C78
:1046E0006C6F0076657273696F6E005F5F636D64F7
:1046F0005F76657273696F6E006C6973745F74685E
:1047000072656164005F5F636D645F6C6973745FA1
:10471000746872656164006C6973745F73656D00C1
:104720005F5F636D645F6C6973745F73656D006C6C
:104730006973745F6576656E74005F5F636D645F57
:104740006C6973745F6576656E74006C6973745F11
:104750006D75746578005F5F636D645F6C69737419
:104760005F6D75746578006C6973745F6D61696CF9
:10477000626F78005F5F636D645F6C6973745F6D17
:1047800061696C626F78006C6973745F6D736771D7
:1047900075657565005F5F636D645F6C6973745FF9
:1047A0006D73677175657565006C6973745F7469A5
:1047B0006D6572005F5F636D645F6C6973745F74D5
:1047C000696D6572006C697374005F5F636D645F2F
:1047D00068656C70005F5F636D645F7073005F5F3E
:1047E000636D645F66726565000000000000000094
:1047F000000102030406070809030406080C101848
:10480000203000005A5F465F5A6875616E546872C6
:104810006561640000000000252D2A2E732070724F
:104820006920207374617475732020202020207308
:10483000702020202020737461636B2073697A6577
:10484000206D61782075736564206C6566742074D2
:1048500069636B20206572726F720A0065440008FC
:104860005D44000859440008F9200008614400082C
:10487000D44600086D270008DD460008052400081E
:10488000E3460008A1450008EB460008A1450008E2
:10489000F94600080D2B0008054700080D2B0008FD
:1048A00017470008F529000820470008F5290008E7
:1048B0002F4700087D2400083A4700087D2400089F
:1048C0004B470008FD28000856470008FD2800084F
:1048D00067470008312600087447000831260008A1
:1048E00087470008D927000895470008D9270008FE
:1048F000A9470008CD2C0008B4470008CD2C0008BB
:10490000C547000825240008CA4700085D2F000895
:10491000D547000863200008DE470008592000083A
:10492000404900080000002050010000B8030008C2
:10493000A049000850010020F02A0000F01E0008E5
:1049400021021102052C015103031304481408A984
:104950001C5208194F2952320A1A14180134320114
:1049600022982A20044A9053111AA80C29043228AC
:10497000299D1AB80C29042A2C80311AC80C290444
:10498000292032051AD80C2904323832061AE80CCC
:1049900029045A3C9C1AF80C2904024D34122000B8
:04000005080000C12E
:00000001FF
