:020000040800F2
:10000000A02B0020153400080B0E00084119000831
:1000100000000000000000000000000000000000E0
:100020000000000000000000000000002B15000888
:100030000000000000000000BB180008A931000803
:100040009B150008AB150008C31C0008EF1D000835
:10005000D32100088F2A0008DF330008EB330008A3
:100060000000000013340008413400084334000845
:1000700045340008473400080000000049340008F7
:100080000000000000000000000000000000000070
:100090004B34000800000000692B00084D340008B4
:1000A000000000004F3400080000000000000000C5
:1000B00051340008690C0008000000000000000036
:1000C00038B505000C002878002806D0322000F052
:1000D00003FB2100280000F0FEFB31BD38B5050010
:1000E0000C00322000F0F8FA2100280000F0F3FBA9
:1000F00031BD80B50100904842788023134343709E
:10010000817003218D4A1170FFF7DAFF01BD7CB5C4
:100110008B4A9178D3786C46237013791B025479FB
:100120001B199BB201931278002A01D0854A1278DC
:10013000814B1A7003221C466270019B5B00A37006
:100140007E4B1A706A461278303A202A0DD26A46DF
:100150001278019BD218512A07DA002B05D0794A70
:100160001278914202D0002900D0A3E0002129E0BA
:10017000002014E06A461278302A08D0312A09D0CB
:10018000322A0AD03D2A0AD03F2A08D0F0E76D482B
:10019000007804E06B48407801E06A4880780222E9
:1001A000664B1C78521E85B2D600F540624E35551E
:1001B000641C1C701306F3D16A461278521C6B46FD
:1001C0001A70491CCAB2019B9A42D3DB5B48017882
:1001D0005948FFF783FF73BD7CB559498878CA78C1
:1001E00000920A7912024B79D21892B201920978E0
:1001F000002901D0534909784F4A117004215170E8
:1002000001994900917003214C4A117000990F29FE
:1002100010DA019A891811290CDA002A0AD0D207BB
:10022000D20F0099CB07DB0F134303D1454909785F
:10023000884200D03EE0002032E000241FE0009918
:10024000C9B200290AD002290BD004290CD00629F2
:100250000DD008290ED00A290FD0EEE739490C79C4
:100260000DE038494C790AE036498C6807E0354999
:100270004C6904E033498C6901E03249CC690425BA
:100280002E490A786D1EEE002300F3402A4EB35427
:10029000521C0A702906F3D10099891C0091801C18
:1002A000C1B2019A9142CADB244801782248FFF783
:1002B00007FF73BD0220FFF71CFF73BD10B5204C74
:1002C000A178E0782278002A01D01E4A12781A4BD1
:1002D0001A7005225A700222184B1A700200503A06
:1002E000052A03D2174A1278914201D002200CE06D
:1002F0002179FF2903D16079002805D116E0002972
:1003000002D16179002903D00320FFF7F2FE10BD6E
:1003100051280BD101228CA1002000F00FFB00F02E
:100320004BFB0122B6A1002000F008FB06212000B3
:10033000FFF7C6FE10BD0000482600209F270020C2
:100340008023002034270020FEB500240027AD487C
:100350008178C67800790002AA4A5279801880B262
:100360007A4DA84A1278002A01D02B7800E00023A9
:10037000774A137010235370430093700322A24BEB
:100380001A703200303A202A0CD23218512A09DA77
:10039000002807D042009B4B9B799A4202D12A78D1
:1003A000914203D00220FFF7A4FEF7BD019023E0A5
:1003B000C1790902007A081880B2944A904218D094
:1003C000A861694600F091F90422694614200EE004
:1003D000C1790902007A081880B28C4A904208D08C
:1003E0006861694600F081F904226946042000F042
:1003F000A5FABF1C761C641CE0B20199884225DA7C
:100400008048C019F1B2302908D031290ED03229E4
:1004100016D03929DCD03A29CAD0EAE7007A287008
:1004200001222900012000F089FAE2E7007A6870D1
:100430000122691C022000F081FA00F059FBD8E784
:10044000007AA8700122A91C0320F4E706216D4858
:10045000FFF736FEF7BD0000F8B56A4AD178937809
:100460003A480078984202D01B02591802E0A223B1
:10047000DB01C918537914792502ED18ADB2127851
:10048000002A00D10020324A10702B205070947046
:10049000D37004205C4B187088B2804BC0180628BB
:1004A00006D288B240197E4B984201DA002D03D162
:1004B0000220FFF71EFEF1BD0095534B794F1C78CB
:1004C0001519601C8EB2F61B0AD0761E14D0761E4B
:1004D00014D0761E14D0761E26D0761E26D028E0A4
:1004E000E0242C7004000120E5B25055641C00206B
:1004F000E5B25055641C1CE0E12418E0E22416E04B
:10050000E3242C7004000720E5B25055641C002041
:100510006FA5C6B2AD196D78E6B29555641C401C46
:10052000C5B2072D05DAF3E7E42400E0E5242C70DA
:1005300004001C70491C0098401E0090BFD119781F
:100540001000FFF7BDFDF1BD0200000034270020C0
:1005500048260020F8B52B4881780902C2788B180C
:100560000179090242798C184078002801D04E4860
:1005700000784E49087041204870022522490D70CC
:100580004A4A214801781F4EEFB2F65D5654491C85
:1005900001706D1CE8B20528F3DD9BB2012B2ED152
:1005A00024042CD1424C012242A1200000F0C6F9C3
:1005B00001226946200000F0E6F9134A11783B4811
:1005C0004318491C6C4624780C2C12D100241C7052
:1005D0001170C9B2FFF774FD374800780028FBD1CD
:1005E000BFF34F8F354836490860BFF34F8F00BFC8
:1005F000FDE701241C701170C9B2FFF761FDF1BD68
:1006000001000000802300209F270020FFFF000042
:100610001CB50020694608802A48007801283CD192
:10062000294C200000F01EF9022836D068460088C8
:10063000002832D021781C480078884201D0002957
:100640002BD16278032A0AD0042A0BD0052A0CD0B9
:10065000102A0DD02B2A0ED0412A0FD011E0FFF71F
:1006600056FD13BDFFF7B8FD13BDFFF727FE13BD01
:10067000FFF76AFE13BDFFF7EFFE13BDFFF76AFF3A
:1006800013BD0A480170802111434170012181701E
:1006900003210E4A1170FFF713FD13BD20AEFFFFBB
:1006A000E7710000E05100003427002048260020B8
:1006B000FF0300000C0000009C2700200400FA0546
:1006C0000CED00E07D230020802300209F270020E8
:1006D000075356312E302E34C82109014843FFE715
:1006E0000100481E0029FBD1704701B46846C0785C
:1006F0000870684680784870684640788870684618
:100700000078C87001B0704702090A2A01DA303255
:1007100000E037320A700007000F0A2801DA303093
:1007200000E03730487070470178412901DA3039EC
:1007300004E0612901DA373900E0573909014278CC
:100740008818412A01DA303804E0612A01DA3738A2
:1007500000E05738C0B27047F8B5CA0701D500208D
:10076000F2BD4D0800270026040005E040002018D7
:10077000FFF7DAFF3F18761CB0B2A842F6D3F84371
:10078000401CC0B2F2BDF8B5CB0701D50020F2BDC8
:100790004D0800260700140005E070003818FFF728
:1007A000C3FFA055761CAE42F7DB2800F2BDF8B5BA
:1007B0004B006C462380002507000E00140005E066
:1007C00068002118785DFFF79FFF6D1CB542F7DBCD
:1007D00068460088F2BDF0B554494A8800230124D8
:1007E000534D02260F78002F03D0022F18D00DD3BF
:1007F0001CE03A2801D1002202E00D2800D10C7043
:10080000A854521C90B2962811DB0FE03A2809D068
:100810000A280E700BD1A854521C4648047006E0FA
:100820003A2804D10B702870012200E00E704A8033
:10083000F0BD30B500228A4210DA835C1C00302CF7
:100840000CDB1D003A3D072D08D3473B1A2B05D37F
:10085000672C03DA521CEEE7002030BD8A42FBD140
:10086000012030BDFEB507000E00002F07D0314833
:100870000178002903D02D4D6988002901D100207D
:10088000FEBD002202702A4CC91E89B2601CFFF70F
:10089000D0FF002801D10120FEBD6D88681F694688
:1008A000888068468188601CFFF756FF00906019B9
:1008B000001FFFF739FF0099C9B2814201D002251C
:1008C00000E003253A0068468188601CFFF75BFF63
:1008D00030802800FEBD38B50A0005D0002803D0BE
:1008E0004A00521D972A01DB002032BD124C3A22E9
:1008F0002270621CFFF75BFF451CADB2691E89B216
:10090000601CFFF729FF6119FFF7FEFEAD1C0D20EB
:10091000A9B260546D1CADB20A2060556D1CA9B21D
:10092000200000F078F980B232BD0000E80000201D
:10093000802300207D23002018240020F8B50F001C
:1009400014001A4D00958021C90088421ADA18490E
:10095000461872B600F0FEF900E00090200044193D
:1009600000040CD0387830707F1C761C0098114938
:100970000968C907F1D50028EFD0401EF7E700F05D
:10098000FEF962B6F1BD8023DB0098420CDA084B19
:10099000C01872B603E003780B70401C491C1300AA
:1009A0005A1E1B04F7D162B670470000FFFF00001B
:1009B00000000808182002407CB5012201A900208F
:1009C000FFF7E1FF2F4C68460079217F884205D070
:1009D0001C2221001C310020FFF7B0FF1C22210047
:1009E0000020FFF7D0FF284A60781070A078507080
:1009F000E0789070002100235569E01800796E4678
:100A0000F0540326F61AF600B0402D185B1C032B99
:100A1000F3DD55610023156920001030C05C6E467F
:100A2000F0540326F61AF600B040281805005B1CA7
:100A3000032BF1DD156120640023D56820000C3004
:100A4000C05C6E46F0540326F61AF600B040281833
:100A500005005B1C032BF1DDD560E06393696846FC
:100A6000250014356D5C45540326761AF600B54012
:100A70005D192B00491C0329F2DD9361A56373BD49
:100A80000000000070000020342700207448016836
:100A900001220A430260A020C0050168714A0A4091
:100AA00002600168802252000A43026041681022FD
:100AB000914341608168C02292000A438260102104
:100AC00081620168F022914301600168A0220A431B
:100AD000026041680C2291434160016A774A0A40F2
:100AE0000262016ACC22D2010A430262704700000E
:100AF00010B5FFF7CBFF724801688022D2020A438B
:100B00000260704801686D4A0A408021C9011143A2
:100B10000160802080056C4908607E4C20680121BE
:100B2000884320600C227C497C488378012B07D0C5
:100B30000AD3032B08D007D222681140784A05E077
:100B400022681140774A01E0236819400A43226075
:100B50006168754A0A406260A168744A0A40A260EE
:100B600073490A68130E12024078401E062836D8D0
:100B700001A1095C8F4400BF08186628384656005A
:100B80009620C000002180185941962212012DE0C4
:100B9000962000010021801859419622520125E03B
:100BA000962080010021801859419622D2011DE033
:100BB0009620C001002180185941962205E0E120CD
:100BC000C001002180185941E12212020EE0E1200B
:100BD0000002002180185941E122520206E09620CD
:100BE000400100218018594196229201002300F013
:100BF000D7F8E06060684F4901406160A0682A2131
:100C00008843A060206820210143216020680121E1
:100C10000143216010BD30B5020008000024002807
:100C200005D0002A03D044490B78002B01D00020C6
:100C300030BD424B962803D99620155D1D55641C86
:100C40008442FAD310223E4C2260324A1B789362CF
:100C500001234B700870116840230B43136030BDB3
:100C60002C100240FFFCFFFF10B52A4CE069800603
:100C700005D534482062606AC0B2FFF7ACFDE06978
:100C8000400615D5304820622B48417802789142C1
:100C900005D22A4A525CA262491C417008E0002138
:100CA0000170206840218843206010202749086097
:100CB0000820E169014000D0206210BDFF00FFFF65
:100CC000381002401CE400E000E100E0FEB5050041
:100CD00000240D20694608701D4F70217C542800A7
:100CE00000F0CAF80195060011E00198051928786E
:100CF0000A2805D1012301226946380000F06EFB65
:100D0000012301222900380000F068FB641CB44272
:100D1000EBD3F7BD00480040F369FFEF3427002014
:100D20000C0400000C060000FFCFFFFFFFF4FFFFE4
:100D3000B4000020FFB7FFFF9C270020B024002054
:100D4000180000502505000026060000280000506D
:100D5000C825002001200E490A6802400DD0EFF39B
:100D6000108272B60B4B8B600B4B8B6082F310883A
:100D70000968084001D001207047002070470748EB
:100D8000016801220A430260002070470000000051
:100D900004200240EFCDAB89050403020420024089
:100DA000124224D0994228D970B500251B4202D0A6
:100DB0000C00002109E000240126491864419442F6
:100DC00000D3A41A7641F8D33100012601E0764120
:100DD00009D2001864416D41A41A9D41F7D2A418AC
:100DE0005D41B619F5D3300022002B0070BD1B42C7
:100DF000D8D108B500F098FB08BD01D19042D3D2FC
:100E000002000B00002100207047FEE738B5040007
:100E10000B001100DAB2042914D3A30714D1130272
:100E200013431D041D4305E0056045608560C560F2
:100E3000103010391029F7D2042903D30560001DA2
:100E4000091FF9E7002901D000F072FB200032BD34
:100E5000002A00D1704710B503000C78491C1C70A3
:100E60005B1C002C02D0521EF7D110BD521EFCD0CC
:100E7000002119705B1CF9E7010000E0491C0A78A9
:100E8000002AFBD1081A70471CB500BF0BA000F068
:100E90006DFA094C200000F069FA00BF0AA000902A
:100EA00003230122032100BF0AA000F05FFA200003
:100EB000243000F05BFA13BD643200080A205C2085
:100EC0007C202F0A000000004A756E20313020324D
:100ED00030323000202F207C205C20202020202554
:100EE000642E25642E2564206275696C6420257348
:100EF0000A0000000100002006E0531C0B600A23DA
:100F000058431278801830380A681378303B0A2B1F
:100F1000F3D37047F3B58AB0129804901398400643
:100F200002D500BF56A100E05AA11398C00603D510
:100F300013980124A0431390202030246D466C7038
:100F40000126139C34406C4602D03024AC7000E083
:100F5000A07000246F463C70139DAD0711D5002A88
:100F600005D52D206D4628705042020009E0139DE2
:100F70006D0701D52B2002E0139D2D0701D56D468D
:100F8000287006AC0194002A64D13020207009E05A
:100F90002C07240F2D090398005D0199029A8854AB
:100FA000002D5BD111980B9B129932008E4200DA12
:100FB0000A00811A20240A98139D11272F400FD16F
:100FC0006D462D78002D07D0002905DD491E03E070
:100FD000984200D20470401C0D00691E002DF7DC01
:100FE0006D462D78002D06D0984202D26D462D78A0
:100FF0000570491E401C139DED060AD46D46AD7860
:1010000003E0984200D20570401C0F00791E002FAB
:10101000F7DC15006A1EAE420CDA984202D26D4629
:101020006D780570401CF4E7984202D2019A925DF7
:101030000270401C3200561E002A02DD049A002A6B
:10104000F2D10A00511E002A18DD984200D2047025
:10105000401CF6E715000593039100260296761CC6
:1010600005980A2894D128000A2100F07BFA0C0088
:1010700028000A2100F076FA05008CE70CB0F0BDDC
:1010800030313233343536373839414243444546BE
:101090000000000030313233343536373839616280
:1010A0006364656600000000F7B586B01C00054665
:1010B00040180390069988421FD20020C043039035
:1010C0000699401A079018E0241D08E06828226855
:1010D000FAD1241D92B20498800700D512B2049868
:1010E000C0B2029005980190009603992800FFF77E
:1010F00011FF05000898401C089008980078002807
:1011000000D113E1252802D003998D4206E1002188
:10111000202002E00A0010211143089A521C089274
:1011200012782D2AF6D02B2A02D10A000421F3E7E7
:10113000202A02D10A000821EEE7232A01D1014327
:10114000EBE7302A00D002E10A000121E4E72A2A75
:101150000DD10898401C08902668241D002E06D545
:1011600070420600084610210143C9B204910020D4
:10117000C0430590089800782E2818D10898401C84
:1011800008900078010030390A2903D208A8FFF737
:10119000B1FE06E02A2808D10898401C0890206873
:1011A000241D05900598002801D5002005900020F9
:1011B00008990978682901D06C2903D10898401C46
:1011C000089008000A230499102211406A46117001
:1011D0002521089A1278252A00D17DE0582A00D1CD
:1011E00085E0632A0FD0642A00D0692A00D185E007
:1011F0006F2A76D0702A5CD0732A24D0752A71D0D9
:10120000782A79D080E06846007800280AD10398CF
:10121000202103E0854200D229706D1C761E012E2C
:10122000F8DA03902168241D0398854200D22970C2
:10123000691C2022761E012E00DA95E0814200D240
:101240000A70491CF6E72768241D002F01D100BF52
:1012500060A73800FFF710FE0599012902DB8142E3
:1012600000DC08006946097800290BD1039904E0E5
:101270008D4201D220222A706D1C3200561E9042EF
:10128000F6DB03910022039B290006E0994201D27C
:101290003D780D70491C7F1C521C8242F6DB3200E7
:1012A000561E904260DA994201D220220A70491CEF
:1012B000F5E70020C043864204D1082604980121A6
:1012C000014304912268241D0498C0B2029005983D
:1012D00001900096102308E70398854220D22970D8
:1012E0001EE008236C2800D0F0E62268ECE60499A2
:1012F00040220A43D2B204921023F3E70499022257
:101300000A43D2B20492EDE7039A954200D22970C3
:101310006D1C08980078002804D0954200D22870EF
:101320006D1CE7E60898401E0890E3E60798002841
:1013300009D00398854202D20020287003E00020E3
:101340000399491E08700698281A09B0F0BD049147
:101350000026F643100030380A2800D3F7E608A824
:10136000FFF7C8FD060002E70D00C3E60EB418B58E
:10137000020003AB154C7F212000FFF795FE2000F3
:10138000FFF7A4FC01B0019810BC04B0004700288E
:101390001BD00F49020603D0C0B2085C401C704746
:1013A000FF221202024004D00004000E085C093043
:1013B0007047FF221204024004D00002000E085CB5
:1013C00011307047000E085C193070474825002026
:1013D000EC2E0008284E554C4C290000FEB50700A5
:1013E0001C007030406820285CD10D000BD0160026
:1013F00009D0B86880214901884206D1386900289F
:1014000003D1E80701D50120FEBD7020385C01281A
:1014100048D0012070217854002039007031C86014
:10142000212039007031486000F0B8F850217E5218
:10143000390050314E80B96880225201914206D164
:101440003969002903D1029401900C0011E02900B0
:101450000025F8E721788162641C07E03868002CD9
:10146000F8D12988C905C90D8162AD1C7088401E5C
:1014700070803E00503670880028029814D000908A
:10148000019B00228021380000F018F80028E5D0E8
:101490000320FEBD38007030202141600021017022
:1014A0000020FEBD0220FEBD019B009000224021D5
:1014B000380000F003F80028ECD0E9E7FEB5089EFC
:1014C000002405000F006846027001932868C06977
:1014D0003840B84201D1012000E000206946097877
:1014E00088421DD10020C0438642EFD000F056F85C
:1014F0000199401A864201D3002EE7D1286801687D
:10150000084A0A400260286881680122914381608C
:101510002800703020214160816004700320FEBDEE
:101520000020FEBD5FFEFFFF7047FEE7002200BF08
:10153000094202D0491E4254FCD17047CA0F00D064
:10154000494203105A400DD004B500D3404200F088
:1015500009F8009AD20701D34942124200D540420D
:1015600004BD0000094214D088420FD30122030CAD
:1015700001D100041204002300185B418B4200D308
:101580005B1A5241F8D31900100070470100002087
:10159000704708B500F008F808BDFEE7014800688C
:1015A000704700BF982700207047FEE7026851602F
:1015B00002680A60016048607047416802685160D3
:1015C00001684268116040600060704738B580482B
:1015D000056800F05DF90400280000F039FA0420E5
:1015E0003C2168542800543000F0B1FA280000F083
:1015F000F8FB012807D188202858002803D12800AB
:1016000000F0A8FB04E029001C317248FFF7CEFF70
:10161000200000F041F900F0D2F931BDFEB5040020
:10162000089809990A9E0B9D27001C372762E761DD
:10163000A262E362206361630A462321206BFFF705
:10164000E5FB654B206B616B4218121FE16AA06AD3
:1016500000F0CEFB60623E2026543D202654002040
:101660002064E5642565A0633C22A0548821605075
:101670008C216050019000902300584A21002000E6
:10168000543000F053FA0020FEBDFFB585B00E9F28
:101690000F9E109D119C0A46012100F035FB03941A
:1016A000029501960097089B079A06990598FFF7FF
:1016B000B5FF09B0F0BD46480068704780B53E21CF
:1016C000415C3D22815401228A40026402213C2275
:1016D000815400F0ADF83E480068002801D000F0C9
:1016E0006EF9002002BDF1B584B00E0014001D009B
:1016F0000146012000F03DFB070007D0280000F064
:1017000069FC002804D1380000F059FB00200CE0EF
:101710000B990A9B320003910293019500902300DC
:1017200004993800FFF77AFF380005B0F0BD38B5EE
:1017300000F0AEF80400264805683C20285C00074D
:10174000000F01281CD1E869296A884218D02800B6
:101750001C30FFF732FF4D483D21695CC90040183D
:1017600029001C31426811604168296229001C313E
:101770004160E861200000F08FF800F020F902E0FD
:10178000200000F089F8002032BD31B500F080F86B
:1017900005000F480468200000F028F86A46002180
:1017A0002000543000F03EFA2000543000F0DFF901
:1017B000280000F071F800F002F9A06B0121C94384
:1017C000884201D10020A063002032BD000000004B
:1017D0005C27002064270020CD1500086D18000844
:1017E00080B500F0DDFCFFF7D0FF02BD38B5040086
:1017F0003C20205C0007000F012802D00020C043DD
:1018000032BD00F045F805003C20205CF02101408D
:10181000022008433C216054200000F019F9200008
:10182000543000F0E8F9280000F036F8002032BD0E
:1018300038B504003C20205C0007000F022802D0CD
:101840000020C04332BD00F023F8050020001C300A
:10185000FFF7B3FE2000543000F0CDF9280000F06F
:101860001BF8200000F0D1F8002032BD10B50400B4
:101870000120C043A06320001C30FFF79EFE200023
:1018800000F0C3F800F09BF810BD00007C2200209F
:10189000EFF3108072B6704780F3108870472B4AC0
:1018A0001368012B03D001231360294A1060294AD1
:1018B00011602948294901607047EFF3108272B620
:1018C0002248016800291DD00021016020480168DC
:1018D00000290AD0EFF30981203900680160F0C1C6
:1018E00044464D4656465F46F0C11A4909680968A4
:1018F000F0C9F0B4F0C9A046A946B246BB46F0BC58
:1019000081F3098882F3108804204042004711497E
:1019100008600F49002008600C4901200860104849
:1019200010490268114301600B480C49016000BF77
:101930000D480068006800BF80F3088862B67047F1
:10194000EFF3098000B500F06DFA00BD9427002088
:101950008C2700209027002004ED00E000000010FC
:1019600020ED00E00000FF0008ED00E040600060B6
:101970007047F8B50024564D6C800026554FF00096
:101980003818FFF7F3FF761C202EF8DB1F20287095
:101990006C60AC6028000C30FFF7E8FFF1BD10B5BB
:1019A0004B4CA068FFF7F3FC4A49C0000818083800
:1019B00000681C3860602430FFF7A9FF10BD38B5FF
:1019C000FFF766FF0400424D0220285E002818D170
:1019D000A868FFF7DCFC401E3E49C20089581C394C
:1019E0006A6891420DD0287069601000243024315B
:1019F000394A1278002A02D1FFF751FF01E0FFF7C0
:101A00004EFF2000FFF748FF31BD10B50400FFF77F
:101A10003FFF3C21615CF0220A40012111433C223E
:101A2000A1542C493D22A25CD200891822001C320C
:101A30004B681A604A68226222001C324A60E161E7
:101A400023498A68236C13438B60FFF725FF10BD81
:101A500010B50400FFF71CFF216AE2695160E169DB
:101A6000226A116021001C312162E16119493D2285
:101A7000A25CD20089180A688A4204D114498A6893
:101A8000236C9A438A60FFF707FF10BD80B5FFF70C
:101A9000FFFE0F494A88521C4A80FFF7FDFE01BD38
:101AA00010B5FFF7F5FE0A4C6188491E618009B246
:101AB000012909DA00216180FFF7EEFE6068002845
:101AC00004D0FFF77CFF10BDFFF7E6FE10BD00005D
:101AD000582700207C2200209E27002040600060C4
:101AE00070470268516002680A6001604860704790
:101AF00038B5049CFE252540457441628262002170
:101B00000163C3621C30FFF7E9FF31BD10B500214E
:101B1000CA0082181C3253681468636013685468E2
:101B2000236052601260491CF2DD10BDF7B505005C
:101B30001F00089E099C0A000A2100F0E5F80094A5
:101B400033003A0002992800FFF7D2FFF7BD38B5FD
:101B50000400FFF79DFE05002000FFF7D7FF2800D7
:101B6000FFF79AFE200000F0F5F8002032BDF8B52E
:101B70000500FFF78DFE04002800FFF7C7FF687C13
:101B8000FE21014069742000FFF786FE00F0F0FAA4
:101B9000E96A40182863FFF77BFE0400464800907E
:101BA000002601E06B465A50F300B1006A465258D5
:101BB000C7187F68BA420BD012681C27FB185F4217
:101BC000D3191B6B2F6BDB1BECD03C4FBB42E9D214
:101BD000761CE9D08168491C816029001C3100987D
:101BE000FFF77FFF687C0121014369742000FFF744
:101BF00053FE0020F2BD38B50400607CC00702D45B
:101C00000020C04332BDFFF743FE05002000FFF770
:101C10007DFF2800FFF740FE607CFE2101406174DB
:101C2000002032BD002908D0022909D002D303299F
:101C30000AD00DE0C06A10600AE01168C16207E0D6
:101C4000417CFD220A4002E0417C02220A434274A8
:101C500000207047F8B500F08BFA0500FFF718FE7A
:101C60000700154C02E03000FFF781FF2668A6420E
:101C700017D01C3E306B281A1049884211D2300010
:101C8000FFF744FFB06A716A884700F071FA0500F7
:101C9000717CFE2008408907890F03297074E2D007
:101CA000E4E73800FFF7F8FDF1BD80B50248FFF723
:101CB00015FF01BD000000007C270020FFFFFF7F13
:101CC0007047FEE70268516002680A600160486080
:101CD0007047416802685160016842681160406065
:101CE0000060704710B50022040006481301C018B8
:101CF0000378A34203D0521C072AF6DB002010BD54
:101D00000000000000000020F8B507000D001600DC
:101D10002800FFF7E7FF0400FFF7B8FE6068211D09
:101D200000E000688842FCD1FFF7BAFE802028431B
:101D30003874102231003800FFF78AF8FFF7A8FD49
:101D4000050039001431201DFFF7BCFF2800FFF704
:101D5000A3FDF1BD38B5040000202074FFF798FD05
:101D6000050020001430FFF7B4FF2800FFF794FDB2
:101D700031BDF8B507000E00FFF7B4FF0400E068BE
:101D800000F028F9050001D10020F2BDE268002131
:101D9000FFF73CF82F7400206874102231002800EF
:101DA000FFF756F8FFF774FD060029001431201DD7
:101DB000FFF788FF3000FFF76FFD2800F2BD38B550
:101DC000040000202074FFF763FD0500200014309C
:101DD000FFF77FFF2800FFF75FFD200000F074F998
:101DE00031BD007C8021084000D001207047FEE713
:101DF000F0B50C00111D0722914340390022002547
:101E00001D4EAF00CE516D1C102DFAD30C624A62EC
:101E10008A62CA620A634B63886380204004C86395
:101E20000800F0BD10B50400E16900BF14A0FFF781
:101E30009DFAA16916A0FFF799FA616918A0FFF74A
:101E400095FA21691AA0FFF791FAE1681CA0FFF743
:101E50008DFAA1681EA0FFF789FA616820A0FFF73C
:101E600085FA216822A0FFF781FA0448016800BFC3
:101E700023A0FFF77BFAFEE7EFBEADDE5C27002074
:101E80007073723A203078253038780A00000000EC
:101E90002070633A203078253038780A000000003E
:101EA000206C723A203078253038780A0000000023
:101EB0007231323A203078253038780A000000003C
:101EC0007230333A203078253038780A000000002C
:101ED0007230323A203078253038780A000000001D
:101EE0007230313A203078253038780A000000000E
:101EF0007230303A203078253038780A00000000FF
:101F000068617264206661756C74206F6E207468FD
:101F1000726561643A2025730A00000070B5874934
:101F20000A684368D418A04210D06588002D0DD1EE
:101F30004D68AC420AD08D68A54200D188606568C2
:101F40004560851A1600083664683551846814198E
:101F500084420CD06588002D09D18D68854200D15E
:101F60008C6041686160A11A08324068115070BDF0
:101F700010B50323DB43C21C1A400B40192B23D39B
:101F80001C00183C94421FD3981A18386B4CE06020
:101F90002260F521490111800C30506000239360CC
:101FA00053805368D21862601180012151805060C3
:101FB00090600023012200BF64A12000183000F0CF
:101FC00040F92068A06010BD0A0001005C48FFF7DE
:101FD000CDF910BDFEB5050006D0C51C0320854314
:101FE000584CE068A84201D20020FEBD0C2D00D262
:101FF0000C250021C9432000183000F031F9206879
:102000000090A0680099461A2B0000E07E68E06806
:10201000C01A86424CD2206887193D006988002981
:10202000F4D169688A1B0C3A9A42EFD3029626696A
:102030000196F52676011F001837BA421CD3029884
:10204000C0180090206802000C32009FD7193E8013
:1020500000227A8079600299B960009A0C326A6035
:102060007968E7680C37B94202D0070008377A5020
:1020700001990C33C91804E0019A5118491B009AC0
:1020800089186269914200D30A00626101226A8064
:1020900021612E80A1688D420FD1A1684A88002A53
:1020A0000BD06268914208D049684118A160F4E7FA
:1020B0002000183000F00DF996E72000183000F0ED
:1020C00008F928000C30FEBD70B5060034D01B4C5A
:1020D0002168884230D3616888422DD20021C943EB
:1020E0002000183000F0BCF80C3EF5256D0170881A
:1020F000002802D03088A84209D000BF15A0FFF701
:1021000035F93388728831000F48FFF72FF9002026
:1021100070803580A1688E4200D2A6602169726805
:10212000891A88192168401A20613000FFF7F6FEED
:102130002000183000F0CDF870BD0000F42600201B
:10214000B4320008F4260020683300086865617026
:1021500000000000746F2066726565206120626176
:1021600064206461746120626C6F636B3A0A0000E2
:102170000A480068704780B508480168491C01603A
:10218000FFF799FA016D491E016503D1C16C016524
:10219000FFF7CDFAFFF75EFD01BD000088270020A4
:1021A00070B5040002D50020C04370BDFA25AD0013
:1021B0002900FFF7C3F906006E4320002900FFF74E
:1021C000BDF96943681E08182900FFF7B7F93018F0
:1021D00070BDFEE740600060704742681160426871
:1021E0004A6041600860704780B51C30FFF7F2FF1D
:1021F000002002BD70B504000D0016002800FFF796
:10220000F5FA002E0FD0012E12D1206800E00068F0
:10221000A04208D03D21695C2122825C9142F6D225
:1022200029001C3102E029001C312000FFF7D5FFF6
:10223000002070BD80B500681C38FFF7F9FA002057
:1022400002BD70B5040015001E000A000221FFF750
:102250005BFD2000FFF7C8FFA5846674002070BDF9
:1022600073B50400FFF714FB0600A08C002806D00D
:10227000401EA0843000FFF70FFB002076BD0198C0
:10228000002805D13000FFF707FB0120C04376BDD1
:10229000FFF711FA05000020A863627C29002000E6
:1022A0001C30FFF7A7FF0198002809DD01AA0021D3
:1022B00028005430FFF7B6FC28005430FFF757FCD5
:1022C0003000FFF7E9FAFFF77AFBA86B0028D4D0BB
:1022D00076BD70B504000025FFF7DAFA0600E06964
:1022E00021001C31884203D1A08C401CA08404E052
:1022F00020001C30FFF79EFF01253000FFF7CCFACD
:10230000002D01D0FFF75BFB002070BD7CB50024E1
:1023100082A60FE068690190287C0090EB68AA68AB
:1023200069682868FFF7DFF9002801D0FFF7C6F9D0
:10233000641CE4B27A4818216143451831002868CA
:1023400000F000F90028E5D173BDFEB500242BE0B4
:1023500001280CD173490E80734800881E303C213F
:10236000FFF7ECF83F1870490C8070490C806F48FB
:102370002979012904D16B4A16806B4A14800480A4
:1023800002216A4611700088401C3C21FFF7D6F8F4
:10239000002902D1761C644804802E61EF606846F3
:1023A000007868710220287100F0E3F8FEF730F938
:1023B0005F480078002852D05D490C7001A95D4843
:1023C0008069FEF792F9042201A91420FEF7B6FAFB
:1023D00001A95848C068FEF788F9042201A90C2019
:1023E000FEF7ACFA01A953480069FEF77EF9042212
:1023F00001A91020FEF7A2FA4E48C0684D490969AC
:1024000045184C484079002806D04A48C0691E301B
:102410003C21FFF7A7F82D1828000621FFF7A2F8A6
:10242000444D686101A9FEF760F9042201A9042066
:10243000FEF784FA6879012802D1E8683E4904E091
:102440002879022804D1286936490988401A05E00C
:10245000354800881E303C21FFF770F8E8613748A6
:1024600000780028A0D035490C7080218900A02078
:10247000C00500F077F90090002800D0012000F09E
:1024800089F92C4D68792E49097800292BD0EF68FD
:102490002E690099002900D05AE702280CD126495C
:1024A0000F80214800881E303C21FFF747F836187E
:1024B0001D490C801D490C802879012805D11E4931
:1024C0000F8019490C8019490C8001206946087059
:1024D00016480088401C3C21FFF730F8002900D046
:1024E0005BE77F1C57E73C21012808D10E4EEF68BF
:1024F00030881E30FFF722F83818E86009E002281B
:1025000008D1094E2F6930881E30FFF717F83818A8
:10251000286134806C71012045E700000000000054
:10252000B8000020B0000020B4260020B226002011
:10253000AE26002034270020AC000020AD2600206D
:10254000AC26002002780B78002A03D0401C491CDE
:102550009A42F7D0D01A704780B5234801214160D4
:10256000FA2109018160C1602049016000F052F93F
:1025700001BD80B51C4800F073F901BD00B585B000
:1025800001201B490A6809239A4302430A604A68EA
:10259000184B134002031A434A600F210091019027
:1025A00000200290039004900021684600F064F936
:1025B00000F008F9104801680122914301600120F0
:1025C00000F0E8F800F04EFAFEF7F6F9FEF790FAA0
:1025D00000F05EFA00F0A0FAFFF7BEFF012000F065
:1025E000D9F805B000BD00006C2700200030004085
:1025F00000100240FFE0FFFF10E000E0FFB5002206
:102600000F2303932AE0062303E05C4B9842FAD1A0
:102610000523B3402B43019D2B60594D2E68E343A6
:102620001E404F68FF0300D526432E606E681E4093
:102630004F68BF0300D526436E60AE681E404F68EA
:10264000FF0200D52643AE60EE6833404E68B60206
:1026500002D51E0023003343EB60521C0D682B0093
:10266000D34000D17DE001230124944002942C400A
:10267000F3D095006E4675704D68022D01D0122D75
:102680001AD1D508AD0045192E6A01966E467778A5
:102690001C263E406F463E70019EB446039F6E4628
:1026A0003678B7406646BE43B4460F696E46367804
:1026B000B740664637432F6256000327B740FD43B5
:1026C00001954D68012D05D0022D03D0112D01D0AB
:1026D000122D0FD18768019D3D40CF68B7402F4331
:1026E00087604568029FBD434F683F091F40974080
:1026F0002F4347600768019D3D400F79BF07BF0F1B
:10270000B7402F430760C768019D3D408F68BC46B6
:1027100037006646BE402E43C6604D68ED009CD52E
:10272000184D2D681D43174E3560174D9608B6009D
:10273000AD1901952D686E4677780C263E40039FB3
:10274000B740BD43A027FF05B84201D1002360E791
:102750000E4FB842FBD00E4B984200D055E70223F3
:1027600057E7FFBD0069084000D00120C0B27047A4
:10277000002A01D08161704781627047001C0050BF
:1027800000040140341002400800014000040050E1
:102790000008005010B5A024E405002807D000224E
:1027A00020212000FFF7E4FF0122402106E0002263
:1027B00040212000FFF7DCFF012220212000FFF74D
:1027C000D7FF10BD38B586B001A81421FEF7AEFEC4
:1027D00001240F48016821430160006820400090F7
:1027E000009860020190002002900390A025ED0562
:1027F00001A92800FFF702FF602001900294022047
:10280000039001A92800FFF7F9FE07B030BD0000D2
:102810002C10024038B5050001D1012032BD2868D6
:10282000124901601249016069684160A9688160CC
:10283000FEF7B4FE04002868C16800290AD0FEF73C
:10284000ADFE001B3128F6D3032032BD09490160DB
:10285000002032BDE96802698A42F7D00161F7E7DA
:10286000044900680160002070470000CCCC0000E3
:1028700055550000AAAA0000F8B5040032D0009116
:102880006F480068C107C90F009881420CD26C489C
:10289000016801229143009A0A4302600068C1075F
:1028A000C90F009881421DD1664D2078800705D55B
:1028B000E868F0218843A1680143E96001272068A6
:1028C00038406AD06068022802D12968890308E08C
:1028D000032802D12968890103E00128296802D16F
:1028E000490702D469E0890567D5E9680322914365
:1028F0000843E860FEF752FE0600606802280CD12B
:10290000E8680C210140082947D0FEF747FE801BEC
:102910004D498842F4D30320F2BD03280BD1E86867
:102920000C2101400C2938D0FEF738FE801B4649A7
:102930008842F4D3EFE7012841D1E8680C21014037
:1029400004292AD0FEF72AFE801B3F498842F4D38F
:10295000E1E72078400705D5E8683C490140E06898
:102960000843E8602078000706D5E8683849014048
:102970002069C0000843E86000F02CF83549EA6897
:102980001206120F895CC84033490860002000F02D
:102990005BF9010000D10020F2BD294800990268CE
:1029A0003A409142D5D20168B943009A0A43026085
:1029B0000068074000988742CBD00120F2BDE8684C
:1029C0000C210140E9D0FEF7E9FD801B1E49884239
:1029D000F5D3A0E7F0B51B4DE968204A930810260F
:1029E00054080C200840042804D0082809D00C28DA
:1029F00009D01DE02868064001D01800F0BD100085
:102A0000F0BD2000F0BD16488F023F0FC05D0902E7
:102A1000890F491CEF68FF0301D5604305E02C686E
:102A2000264001D0584300E05043FEF79BFDF0BD27
:102A3000686801210004400F401C8140C803F0BDBC
:102A4000002002400010024089130000FFF8FFFF41
:102A5000FFC7FFFF48320008B40000200024F40044
:102A60005832000810B500240748016840220A4384
:102A70000260002000F0E8F8002801D0012401E005
:102A800000F004F8200010BD002002407047FEE76F
:102A900010B501205E490A6802430A608A6804236F
:102AA00013438B600C21C943A022D20513680B404D
:102AB0001360136808241C43146053680224A34362
:102AC000536093680C241C439460D3681940D16010
:102AD000D168D160116AF02399431162116A5023C1
:102AE0000B4313624B490A684B4B13400B604B4A34
:102AF000CA6200228A6248618B68494C1C40F023FC
:102B00001B0123438B608B6884031C438C604A62E7
:102B10000A681043086010BD10B5424C4248E0609E
:102B200042482061002060614149A161E0612000CC
:102B30000C3000F0A3F820000C3000F0B5F810BD08
:102B400000683949884200D0704780B5394801682B
:102B500020220A43026003220121162000F09BF983
:102B6000162000F09CF901BD80B5334800F0BCF898
:102B700001BDFCB52B4C21000C31884246D1E088C8
:102B8000401CE0802089401C20812C49086880B2CC
:102B90000090002008602A4DA969009A8918A9614F
:102BA00001260099002901D02670E070E178491CC7
:102BB000E170C9B23C2903DB0099002900D12070E3
:102BC0006670E788781C01900521FEF7B7FC0029A4
:102BD00000D1A670142F0BDA2079002808D1E088E4
:102BE000132800D12671009841000818A860F3BD91
:102BF00001981421FEF7A2FC002907D1A969114808
:102C000002888A1A53009A18AA600180F3BD000056
:102C10002C100240000801408FFCFFFFFFFF000066
:102C2000FF00FFFFAC260020001401403F0600001B
:102C30000F27000034100240B8260020240801406D
:102C400034270020A800002038B5050000240A48D9
:102C50000068FA218900FEF785FC00F027F90028BA
:102C600001D0012405E0290000220020C04300F02B
:102C700012F9200032BD00BFB400002010B50400DE
:102C800001D1012010BD3920205C002804D1382159
:102C900060542000FFF754FF022039216054211DA9
:102CA000206800F0AEF817E000680121C2680A430E
:102CB000C26082685207520F062A02D0026811438E
:102CC0000160002070472068016A064A0A4003D16B
:102CD00001680122914301600120392160540020E4
:102CE00010BD000011110000F8B504002068002597
:102CF00002260169314015D0C168314012D002214D
:102D0000C9430161012121768069800703D0200039
:102D100000F0E8F805E0200000F0E5F8200000F001
:102D2000E3F82576206804270169394016D0C16888
:102D3000394013D00421C943016126768069C0213E
:102D40008900014003D0200000F0CCF805E020000D
:102D500000F0C9F8200000F0C7F8257620680826A2
:102D60000169314014D0C168314011D00821C943F4
:102D700001612776C069800703D0200000F0B2F817
:102D800005E0200000F0AFF8200000F0ADF8257657
:102D90002068102102690A4016D0C268114013D081
:102DA0001021C94301612676C069C0218900014014
:102DB00003D0200000F096F805E0200000F093F822
:102DC000200000F091F825762068012102690A4070
:102DD00008D0C268114005D00121C943016120001B
:102DE000FFF7C7FE2068402102690A4008D0C26888
:102DF000114005D04021C9430161200000F075F861
:102E0000F1BD70B50268124B124C8025ED05A84249
:102E100003D0A04201D0984208D17026B2431600D8
:102E20004A683243A84203D0A04201D0984203D15D
:102E3000094B1340CA681A4380239A430B69134312
:102E400003608A68C262096881620121416170BDC4
:102E50000014014000080140FFFCFFFF10B5C20054
:102E600018231340FF249C40E2438907090E994030
:102E7000030007D5174B0007000F083880088000B3
:102E8000181803E014489B089B00C01803681A40F8
:102E90001143016010BD80B5FFF7E0FF01BD0121C6
:102EA000C006C00E81400D480160704710B5401E3D
:102EB00080214904884201D3012010BD084C606084
:102EC00003210020C043FFF7C9FF0020A0600721B5
:102ED000216010BD1CED00E000E400E000E100E036
:102EE00010E000E070477047704770470000010035
:102EF00002000100030001000200010004000100C3
:102F000002000100030001000200010005000100B1
:102F100002000100030001000200010004000100A2
:102F20000200010003000100020001000600010090
:102F30000200010003000100020001000400010082
:102F40000200010003000100020001000500010071
:102F50000200010003000100020001000400010062
:102F6000020001000300010002000100070001004F
:102F70000200010003000100020001000400010042
:102F80000200010003000100020001000500010031
:102F90000200010003000100020001000400010022
:102FA0000200010003000100020001000600010010
:102FB0000200010003000100020001000400010002
:102FC00002000100030001000200010005000100F1
:102FD00002000100030001000200010004000100E2
:102FE00002000100030001000200010070B5294E3B
:102FF0000AE0FEF755FD2800FEF74EFC206BFFF7B8
:1030000063F82000FEF7DBFE3068B04227D0FEF701
:103010003FFC05003068B0421ED0306804001C3C04
:10302000216AE2695160E169226A116021001C3164
:103030002162E061FEF72AFD88202158002901D095
:10304000200088472000FEF7CCFE0128D1D12000C7
:10305000FEF780FEFEF724FD2800FEF71DFC70BD84
:1030600080B5FFF7C3FFFCE71FB50B4C2020039092
:103070001F200290E130019020009030009000234A
:10308000064A00BF06A12000FEF7FFFA2000FEF767
:1030900015FB1FBD64270020EC20002061300008D4
:1030A0007469646C65000000002070470020704760
:1030B000002070470020704738B5154C154D02E0D0
:1030C00038B5144C144D02E020688047241DAC42F2
:1030D000FAD331BD80B500F03DF800F021F80020B2
:1030E00002BD80B5FFF7ECFF00F048F801BD00001D
:1030F000E0B5142001900A20009080239B0000225C
:10310000064900BF11A0FEF7EEFAFEF7D7FA07BD99
:1031100034340008383400083C340008E330000838
:1031200080B5FEF7B5FB00F031F8FDF7ADFEFEF718
:10313000BCFDFEF71EFCFFF7DBFFFEF7C1FDFFF74E
:1031400093FFFEF72CFC002002BD00006D61696E4C
:103150000000000010B5074979441831064C7C4442
:10316000163404E0081D0A68891888470100A14246
:10317000F8D110BD240200004002000080B5FFF726
:10318000C5F8FA208000FEF72BFBFAE710B5FFF731
:10319000F5F9FFF791FF00F00FF8040000F010F8C8
:1031A0002100FEF7E5FE10BD80B500F00DF8FEF73A
:1031B000E2FF00F010F801BD00487047EC2000204D
:1031C00000487047EC00002080B5FEF761FB07491E
:1031D0000A78521C05E080B5FEF75AFB03490A78CD
:1031E000521E0A70FEF758FB01BD00009E2700200A
:1031F0000F480168820D0A430260C1680D4A0A4007
:10320000C26001680C4A0A40026081680122914351
:1032100081600168094A0A400260C168084A0A40A0
:10322000C2600021016180200005064908607047E6
:10323000001002400C40FF88F6FFF6FEFFFFFBFF88
:10324000FFFF02FF08ED00E00000000000000000AA
:103250000102030406070809030406080C101820DD
:10326000300000002D205254202D202020202054FA
:103270006872656164204F7065726174696E672061
:1032800053797374656D0A002032303036202D205A
:103290003230313920436F70797269676874206207
:1032A000792072742D746872656164207465616D33
:1032B0000A0000006D656D20696E69742C206572CE
:1032C000726F7220626567696E20616464726573F3
:1032D0007320307825782C20616E6420656E642020
:1032E0006164647265737320307825780A00000089
:1032F00070B40123002413E00168001D194202D0BC
:103300004D466D1E49190C60091D121F042AFAD280
:103310000D00960701D50C80AD1C1A4000D02C7012
:103320000268001D002AE7D170BC704730B5016803
:103330004118446862088A188368E4070DD54C4632
:103340001B190AE00C7864B2491C0D78491C1D70E9
:103350005B1C002C05D5641CF9D19142F2D10C30D4
:1033600030BD641EF1D5F8E76D656D3A20307825E3
:103370003038782C207573656420666C61673A205C
:1033800025642C206D6167696320636F64653A2052
:103390003078253034780A0059FFFFFFB42600004A
:1033A000EC0000200000000085FFFFFFA6000000E9
:1033B0003401000000000020FFF78CFE002801D03F
:1033C000FFF7C8FE00BF00BF002000BF00BFFFF72F
:1033D000D5FE00F000F880B500F002F801BDFEE770
:1033E0000746384600F002F8FBE7FEE780B500BF6D
:1033F00000BF024A11001820ABBEFBE72600020006
:103400005A5F465F5A6875616E5468726561640000
:103410000000FEE70148804701480047F1310008FD
:103420002534000800BF00BF00BF00BFFFF7C4FF86
:10343000A9300008AD300008B1300008B5300008F0
:10344000FEE7FEE7FEE7FEE7FEE7FEE7FEE7FEE754
:10345000FEE70001FD0008040000200400002090A9
:10346000FD000002FD0008140000201400002028C8
:10347000FD000003FD000824000020240000202C93
:10348000FD000004FD000834000020340000202866
:10349000FD000005FD000844000020440000203825
:1034A000FD000006FD000854000020540000203CF0
:1034B000FD00000AFD0008640000206400002034C4
:1034C000E1000301510303DA000920000034000881
:1034D0004B230008FB000302000002FD00000AFD70
:0C34E000000310340008EC000002FD00A6
:040000050800342596
:00000001FF
